:100000000C943E050C945B050C945B050C94202924
:100010000C945B050C945B050C945B050C945B05E0
:100020000C945B050C945B050C9462260C943A27A7
:100030000C94DD0F0C945B050C945B050C945B0534
:100040000C945B050C945B050C945B050C945B05B0
:100050000C945B050C943E260C945B050C945B059C
:100060000C945B050C945B050C945B050C945B0590
:100070000C945B050C945B050C945B050C945B0580
:100080000C945B050C945B050C945B050C945B0570
:100090000C945B050C945B050C945B050C945B0560
:1000A0000C945B050C945B050C945B051900100027
:1000B00000000A000B00000009000D00000000AF66
:1000C00000AE0000000000003E5B4F5B3E003E6B58
:1000D0004F6B3E001C3E7C3E1C00183C7E3C1800D2
:1000E0001C577D571C001C5E7F5E1C0000183C18CE
:1000F0000000FFE7C3E7FF00001824180000FFE737
:10010000DBE7FF0030483A060E0026297929260051
:10011000407F05050700407F05253F005A3CE73C2E
:100120005A007F3E1C1C0800081C1C3E7F00142245
:100130007F2214005F5F005F5F0006097F017F0080
:10014000006689956A0060606060600094A2FFA20A
:10015000940008047E04080010207E201000080887
:100160002A1C0800081C2A0808001E101010100085
:100170000C1E0C1E0C0030383E383000060E3E0EB1
:10018000060000000000000000005F000000000703
:1001900000070000147F147F1400242A7F2A120015
:1001A00023130864620036495620500000080703F4
:1001B0000000001C224100000041221C00002A1CFB
:1001C0007F1C2A0008083E080800008070300000EC
:1001D00008080808080000006060000020100804FB
:1001E00002003E5149453E0000427F4000007249F6
:1001F000494946002141494D33001814127F10002F
:100200002745454539003C4A4949310041211109FA
:100210000700364949493600464949291E00000071
:1002200014000000004034000000000814224100C7
:100230001414141414000041221408000201590976
:1002400006003E415D594E007C1211127C007F4930
:10025000494936003E41414122007F4141413E0033
:100260007F49494941007F09090901003E41415147
:1002700073007F0808087F0000417F410000204094
:10028000413F01007F08142241007F404040400070
:100290007F021C027F007F0408107F003E41414125
:1002A0003E007F09090906003E4151215E007F0999
:1002B0001929460026494949320003017F010300FC
:1002C0003F4040403F001F2040201F003F4038403B
:1002D0003F006314081463000304780403006159A9
:1002E000494D4300007F41414100020408102000B5
:1002F000004141417F0004020102040040404040AF
:1003000040000003070800002054547840007F2874
:1003100044443800384444442800384444287F008A
:1003200038545454180000087E0902001824241C74
:1003300078007F080404780000447D4000002040DD
:10034000403D00007F102844000000417F40000035
:100350007C04780478007C08040478003844444421
:1003600038007C1824241800182424187C007C08E9
:100370000404080048545454240004043F44240056
:100380003C4040207C001C2040201C003C40304071
:100390003C004428102844004C9090907C00446419
:1003A000544C440000083641000000007700000073
:1003B0000041360800000201020402003C26232608
:1003C0003C000000000000000000000000000000F1
:1003D0000000C0E0F0F8F81800C0F0FCFEFFFFFFDE
:1003E000FFFFFFFF7E00000000000000000080C053
:1003F000E0E0E0E0E0E0E0E0C0800000000080C07D
:10040000E0E0E0E0E0E0E0E0C080000000E0E0C02C
:10041000C0E0E0E0E00000E0E0C0C0E0E0E0E0E0FC
:10042000C0800000000080C0E0E0E0E0E0E0E0E04C
:10043000C08000000000000000000000000000007C
:10044000E0F0F0F0E0ECEEF7F37020007C7C7C7ED6
:10045000007E7E7E7F7F7F000080C0E07E5B4F5B02
:10046000FEC00000C000DCD7DEDEDED7DC00C0004E
:10047000000000000000000000000000000000007C
:100480000000000000000000000000F8FCFEFFE09B
:1004900000FFFFFFFFFFFF80FFFFFFFFFFFFFFFFEA
:1004A000FF1F0701000000000000000000FFFFFF29
:1004B0008100000000000081C3C3C30000FFFFFFF4
:1004C0008100000000000081FFFFFF0000FFFFFF30
:1004D00001000000000000FFFFFF0100000000011C
:1004E000FFFFFF0000FFFFFF9D1C1C1C1C1C1C9D30
:1004F000DFDFDF000000000000000000000000005F
:100500000F1F3F7F7F7F7F7F3F1E0C001F1F1F3FFE
:10051000003F3F3F7F7F7F00307B7F78302020305F
:10052000787F3B0003000F7F0F0F0F7F0F0003004A
:1005300000000000000000000000000000000000BB
:100540000000000000000000000000030F1F3F3FFC
:100550003F3F1F1F3F3F7F7F7F3F3F1F3F7F7F7F8B
:100560007F7C7878381C0F00000000000000010339
:10057000070707070707070703010000000001033B
:10058000070707070707070703010000000707071A
:100590000000000000000007070700000000000046
:1005A00007070700000001030707070707070707FA
:1005B0000301000000000000000000000000000037
:1005C000000000000000000000000000000000002B
:1005D000000000000000000000000000000000001B
:1005E000000000000000000000000000000000000B
:1005F00000000000000000000000000000000000FB
:10060000000005010902A10185020901A1000509F7
:1006100019012908150025019508750181020501B8
:10062000093009311581257F950275088106093841
:100630001581257F950175088106050C0A3802157C
:1006400081257F950175088106C0C005010980A13B
:1006500001850319012AB700150126B70095017518
:10066000108100C0050C0901A101850419012AA00F
:1006700002150126A002950175108100C00501092F
:1006800006A1018506050719E029E7150025019552
:1006900008750181020507190029EF15002501954C
:1006A000F07501810205081901290595057501916B
:1006B00002950175039101C005010906A101050715
:1006C00019E029E7150025019508750181029501BA
:1006D000750881010507190029FF150026FF0095FF
:1006E00006750881000508190129051500250195E1
:1006F0000575019102950175039101C009023B0046
:10070000020100A0FA09040000010301010009210F
:1007100011010001224400070581030800010904BA
:100720000100010300000009211101000122B600AF
:100730000705820320000112010002000000085397
:100740004601000100010200010C0343006F00722A
:10075000006E0065000000100366006F006F0073FC
:1007600000740061006E0000000403090400DA0256
:1007700081FFD9F1DB20A4A62EAF00A0C0D30000DA
:10078000A1C8D30000AED580A81F408D14200080E2
:100790008182838485868788898A8B8C8D8E8F90D1
:1007A00091929394A0A1A2A3A4A5A6A7A8A9AAAB3D
:1007B000ACADAEAFB0B1B2B3B4C0C1C2C3C4C5C6B4
:1007C000C7C8C9CACBCCCDCECFD0D1D2D3D4003AB2
:1007D000002C206B007800556E6465660041646AE9
:1007E000757374005261697365004C6F77657200B0
:1007F00044656661756C74004C617965723A2000DD
:10080000635214001A00080015001700A8520421B2
:100810001645074109000A00E0001D001B00060004
:1008200019000500000000000000E2002C00290073
:100830003100130012000C0018001C00340033219A
:100840000F440E420D000B00E50038003700360063
:10085000100011000000000000002A002B002800FA
:10086000000000000000000000000000E300E100C4
:100870000100010001000000000000000000000075
:100880000000000000000000000001000100010065
:100890000000000026002500240000000000E50004
:1008A00023002200210000000000000020001F00A3
:1008B0001E002700000000000000010001000100F0
:1008C00000003502240225025600570000003500C2
:1008D0002302220221026700000000001E021F0204
:1008E00020022D02000000000000010001000100B4
:1008F00000000000000000000000000000000000F8
:1009000000000000000000000000000000000000E7
:1009100000000000000000000000010001000100D4
:100920000100000040004100420000000000000003
:100930003D003E003F000000000000003A003B0088
:100940003C00000000000000000000000000D1009A
:100950000000000000000000000000000000000097
:10096000D000CD00CE00CF0000000000000000004D
:100970000000000000000000000000000000D200A5
:10098000000000000000360237020000E3002602EB
:1009900027022F02300200000000000000002F009C
:1009A0003000000000000000000001000100010014
:1009B0000000000000000000000000000000E50052
:1009C00001000100E4000000000000000000000041
:1009D0000000000000000000000001000100010014
:1009E000000000000000000000000000E300E00044
:1009F00001000100E1000000000000000000000014
:100A000000000000000000000000000000000000E6
:100A10000000000000000000000000000000E400F2
:100A20004F00520051005000000000004C00E20056
:100A3000E4000000000000000000000000000000D2
:100A4000202020206162636465666768696A6B6C58
:100A50006D6E6F707172737475767778797A3132E2
:100A60003334353637383930524542545F2D3D5B8B
:100A70005D5C233B27602C2E2F20202011241FBEDD
:100A8000CFEFDAE0DEBFCDBF11E0A0E0B1E0E8EAF1
:100A9000F7E502C005900D92AE38B107D9F725E011
:100AA000AEE8B1E001C01D92AF3CB207E1F70E9491
:100AB00042200C94802B0C940000292F30E021154B
:100AC0003105E9F49C0180E0A90174E05695479551
:100AD0007A95E1F74115510511F08C5F9A01A90152
:100AE00056954795569547954115510511F08E5FDE
:100AF0009A0136952795232B09F08F5F089588E09A
:100B0000E3CF9093CC058093CB0508959093CE05C9
:100B10008093CD05089521E030E002C0220F331FFD
:100B20008A95E2F78091CD059091CE05822B932B8B
:100B30000E948605089521E030E002C0220F331F95
:100B40008A95E2F7209530958091CD059091CE055C
:100B5000822393230E9486050895983098F5863065
:100B600088F5E82FF0E086E0989FE00DF11D112454
:100B70008E2F877041E001C0440F8A95EAF783E029
:100B8000F695E7958A95E1F7EE0FFF1FEE0FFF1F31
:100B9000ED50FB4F20E030E070E05191DF01119704
:100BA000CB01022E02C0969587950A94E2F78170D8
:100BB00081958527842385278C932F5F3F4F243091
:100BC000310559F70895983078F5863068F5E82FA3
:100BD000F0E086E0989FE00DF11D11249E2F9770A4
:100BE00083E0F695E7958A95E1F7EE0FFF1FEE0F8C
:100BF000FF1FED50FB4F40E050E080E0219130E0DE
:100C0000092E02C0369527950A94E2F72170332702
:100C1000042E01C0220F0A94EAF7822B4F5F5F4F28
:100C20004430510559F7089580E008958091A1045A
:100C30009091A004981301C008958F5F8770FACF38
:100C400090912C019115E1F09091510597FF18C0FA
:100C5000E82FE695E695E695803FF0F4F0E0E05762
:100C6000FE4F877021E030E0A90102C0440F551FFC
:100C70008A95E2F7CA01809592818923828308953B
:100C8000E2E9F1E09191891303C0DF0111971C9211
:100C900051E0E839F507B1F7089590915005809536
:100CA000892380935005282F277021110DC08917A3
:100CB00059F09091520592FF07C0869586958695CA
:100CC0000E949B05109250050895982F9095809151
:100CD0004D05892380934D0508957830B8F466302A
:100CE000A8F48630B0F4E62FF0E096E0799FE00DAE
:100CF000F11D112490E3899FE00DF11D1124EE0FE9
:100D0000FF1FE050F84F85919491089580E090E0A6
:100D1000089581E0FCCF803E9105D9F1C8F481337C
:100D2000910509F482C048F48932910509F472C032
:100D30008A32910509F480C0089589339105E9F05C
:100D400082389105D1F08533910509F45EC008958C
:100D5000843E9105D9F148F4823E910539F1833EF4
:100D6000910549F181EE90E00895863E9105C9F123
:100D7000873E910509F43EC00895209151052370E6
:100D8000211164C02091520523FF14C089E290E034
:100D900008952091510520FD45C03091520530FF46
:100DA00009C024FD24C083EE90E0089520915105F0
:100DB00022FDF7CF08952091510522FD44C03091C6
:100DC000520530FD43C024FFF5CF11C020915205DC
:100DD00021FFF0CF8091510584FD09C087EE90E09E
:100DE00008952091510523FFE5CF24FFF7CF80E040
:100DF00090E008952091510523FD2BC030915205BC
:100E000031FFE1CF84EE90E008952091510525FF58
:100E1000D1CFBCCF2091510525FD1EC02091520598
:100E200023FFC8CF89E390E008952091510526FF64
:100E3000C1CF8AE290E008952091510526FFBACFF4
:100E400081E390E0089582EE90E0089580EE90E0D6
:100E5000089586EE90E0089585E390E008959091DE
:100E6000510592FF10C041E0282F2471243009F071
:100E700040E031E0282F2871283009F030E0431796
:100E800011F02CE0822793FF10C041E0282F24713D
:100E9000243109F040E031E0282F2871283109F091
:100EA00030E0431711F02CE082273091520530FFDB
:100EB00010C051E0282F2171213009F050E041E0AD
:100EC000282F2871283009F040E0541711F029E04C
:100ED000822731FF10C041E0282F2171213109F014
:100EE00040E031E0282F2871283109F030E0431725
:100EF00011F029E0822794FD877E08951F93CF93F8
:100F0000DF930E948B06EC01811522E5920708F021
:100F10005DC0811540E5940708F0DBC0803E910577
:100F200028F58D3C910508F0ACC0883A910578F41D
:100F3000853A910508F0A2C08130910509F441C0BD
:100F40000497813A9105E8F1C0E0D0E03AC0885AB0
:100F500091094B97C8F7C85AD0E0CC0FDD1FC85A8B
:100F6000DE4F0990D881C02DD4642BC0811550E488
:100F70009507F8F4C11580E2D80708F0C3C0C83E51
:100F8000D105F8F0CE019A9581159F41E8F68D2F95
:100F90000E942F07182FCE0199270E948B06212F20
:100FA00030E0322F2227E901CC27DF71C82BD92B63
:100FB00008C099270E948B06CC27DF70C82BD92B3D
:100FC000D06ACE01DF91CF911F910895803842E51C
:100FD0009407C8F5803652E5950708F05BC0C03429
:100FE00082E5D807D0F4C03292E5D90708F04BC0AB
:100FF0008C2F8695869520E2829FC0011124C370B4
:1010000021E030E0A90102C0440F551FCA95E2F764
:10101000EA01C82BD92BDD68D4CF8C2F8695869515
:10102000877050E2859FC0011124C37021E030E039
:10103000A90102C0440F551FCA95E2F7EA01C82B67
:10104000D92BDC68BECF803C52E5950758F48F71F0
:10105000C03AD245A0F590E0982F8827EC01C46FE4
:10106000D06AAFCF805C9245809708F06DCFDC2FBF
:10107000CC27CC27DF71C06FD06AA3CFA497D064F0
:10108000A0CFD0659ECFCF71D0E0DC2FCC27C16F31
:10109000D06A97CF86958695877020E2829FC0019F
:1010A0001124C37021E030E0A90102C0440F551F94
:1010B000CA95E2F7EA01C82BD92BDA6882CF0E94E1
:1010C0002F07C82FD0E0DC2FCC27CC27DF71D062D0
:1010D00078CF8F710E942F0765E0D695C7956A95E6
:1010E000E1F7CF70D0E0DC2FCC27282F30E084FF51
:1010F00005C054E0220F331F5A95E1F7C22BD32BC2
:10110000D0695FCF8D2F8F710E942F07182FCE01CE
:1011100099270E948B06212F30E0322F2227222789
:101120003F71282B392BE901D2CFA0E0B0E0EBE9E9
:10113000F8E00C94582A8C01E090CD05F090CE0593
:101140008091CB059091CC05E82AF92ACFE0D0E038
:10115000CC24C394D12CC6010C2E02C0880F991F39
:101160000A94E2F78E219F21892B49F4219798F761
:10117000B12C8B2DCDB7DEB7E9E00C94742ABC2ED0
:10118000B8018C2F0E946D060E947E07019771F3B3
:10119000F0CF0F931F93CF93FC0187819085009729
:1011A00099F4858100811181811591F0611581F09B
:1011B000C8010E949508C82F682FC8010E94AD057C
:1011C000B8018C2F0E946D06CF911F910F91089549
:1011D000C8010E94E305C82FF3CFCF93DF93D82F28
:1011E000C92F0E9495086D2F7C2F0E946D060E94CA
:1011F0007E07DF91CF910895FC0184818115B1F0C4
:10120000878190850097A1F00E947E07282F9295F4
:101210009F709630C1F088F4925F9F70923030F4E6
:10122000203FB1F060F481E0283E60F080E0089556
:10123000808191810E94ED08E9CF9A5FEECF81E035
:10124000243FA1F7089581E0283E20F0213FF9CF07
:1012500081E00895089580E00895F894E82FE295DC
:10126000EF70F0E041A18F7021E030E0B90102C0E1
:10127000660F771F8A95E2F7CB01962F90959423FE
:1012800091A392A1892B82A378940895282F35EBFE
:101290002303C001112497FF04C080589109892FAE
:1012A000089580589F4FFBCF80910D0580FD14C09D
:1012B00081FD14C082FD16C080910C05811581F05E
:1012C0008E3180F420E5829FC00111246EE170E030
:1012D0000E94922A862F089584E1089588E2089555
:1012E00088E0089580E5089580910D0580FD17C080
:1012F00081FD17C082FD19C080910B05811599F001
:10130000883298F428E0829FC001112468E270E0DE
:101310000E94922A6115710551F0862F089562E0AE
:10132000FCCF64E0FACF61E0F8CF68E0F6CF81E06F
:10133000089510925D0510925C05EEE2F1E083E401
:1013400091E02581211102C01482168237968E17F2
:101350009F07B9F70895AC0130915F0560915E0574
:10136000232F621301C00895822F90E0FC01EE0F3D
:10137000FF1FEC5AFA4F0190F081E02DE417F507BA
:1013800091F467E0649FF001659FF00D1124E25D28
:10139000FE4F41E044832313E6CF019683709927E3
:1013A00080935F0508950196282F2370DACFA3E07C
:1013B000B0E0EDEDF9E00C945F2A9C018091FB0117
:1013C0009091FC0182179307A1F03093FC012093C8
:1013D000FB01E0917E04F0917F04309751F083E0AF
:1013E00089833B832A830680F781E02DCE01019615
:1013F00009952396E2E00C947B2AA3E0B0E0E3E0B9
:10140000FAE00C945F2A9C018091F9019091FA0115
:1014100082179307A1F03093FA012093F901E0912C
:101420007E04F0917F04309751F084E089833B8300
:101430002A830680F781E02DCE0101960995239637
:10144000E2E00C947B2A9C0180912C018115C1F073
:101450008091510587FF14C0862F869586958695C5
:10146000603FF8F4F901E80FF11D677021E030E00A
:1014700001C0220F6A95EAF78281822B8283089548
:10148000F90132968FEF90E04191641751F08F3F50
:1014900019F4411101C0892F9F5F9630A9F78F3F42
:1014A00009F40895280F311D87FD3A95F9016283EB
:1014B00008952FB7F8946091F5017091F60180912D
:1014C000F7019091F8012FBF08950F931F93462FB6
:1014D000572FBC012FB7F8948091F5019091F60138
:1014E000A091F701B091F8012FBF8C019D01041B61
:1014F000150B260B370BC901B8011F910F910895E9
:1015000087E797E7909301088093000888E19AE0C5
:101510000FB6F894A895809360000FBE909360007A
:10152000FFCF8091F4010895FC019B018091D201CD
:101530009091D3018617970740F0672B29F480918B
:10154000E8008E778093E800C90140E0009741F4FD
:10155000411106C08091E80082FF2FC080E008950D
:10156000209176042115A9F12530A9F12091E800F8
:1015700023FD2DC02091E80022FDECCF2091E80052
:1015800020FFE4CF3091F3002091F200009719F092
:101590002830310558F041E02830310509F040E0AD
:1015A0002091E8002E772093E800D0CF419140931E
:1015B000F10001972F5F3F4FE9CF809176048115AD
:1015C00041F0853041F08091E80083FFC3CF81E096
:1015D000089582E0089583E008958091CC0187FF0B
:1015E00013C08091E80082FF06C08091E8008B77ED
:1015F0008093E8000895809176048111F2CF0895D8
:10160000809176048115D9F38091E80080FFF8CFAE
:101610008091E8008E77ECCF2091E4003091E500D6
:1016200095E6A9018091EC008170811531F08091DF
:10163000E80080FF06C080E008952091E80022FDC8
:101640001AC080917604811589F0853089F08091E7
:10165000EB0085FD0FC02091E4003091E5004217BA
:10166000530701F39A95E9F684E0089582E008951E
:1016700083E0089581E00895E8EDF0E080818E7FB9
:1016800080831092E2001092DA001092E100A0EE46
:10169000B0E08C9181608C9380818F77808319BCBE
:1016A000A7EDB0E08C918E7F8C9380818F7E8083BC
:1016B0001092CB010895FC01AC014C5F5F4F8FEF9E
:1016C00061E39191892728E030E0982F990F87FFF7
:1016D00009C0892F862721503040B9F7E417F50754
:1016E00081F70895892FF7CFA0E0B0E0EAE7FBE0AB
:1016F0000C94552A90910001981304C09091C70151
:10170000903269F18093000190E29093C701C82E56
:10171000D12CE12CF12C1092C60106EC11E0C0E0B6
:10172000D0E08AE0882E912CA12CB12CC701B60103
:10173000A50194010E94A62A605D603339F42097C8
:1017400029F0CD28CE28CF2809F460E2F801629371
:101750008F0169017A012196C330D10539F783ECF5
:1017600091E0CDB7DEB7ECE00C94712A982F9093FE
:10177000E900242F762F50E0981731F07091EC009B
:101780002091ED005091F00021FD06C09F5F973041
:1017900071F78093E90008953091EB003E7F30931C
:1017A000EB003091ED003D7F3093ED003091EB0088
:1017B00031603093EB007093EC002093ED00509378
:1017C000F0002091EE0027FDE1CF0895A0E0B0E009
:1017D000ECEEFBE00C94592AC8EDD0E088818F7EB6
:1017E0008883E7EDF0E080818160808384E082BFC0
:1017F00081E08093CB0188818E7F888302EE10E0A8
:10180000F80110821092DA0081EEC82ED12CF60178
:10181000108288818F778883888180688883888117
:101820008F7D888319BC109276041092CA011092A1
:1018300009021092C90190EEE92EF12CF701808186
:101840008B7F808388818160888342E060E080E0D4
:101850000E94B60BF60180818E7F8083F801808123
:1018600081608083808188608083F70180818E7FA2
:101870008083888180618883CDB7DEB7E8E00C94EF
:10188000752A80917704811110C08091D800806101
:101890008093D8008AE18A95F1F700C08091D90041
:1018A00080FF0AC081E08093770481E09091770403
:1018B000913009F080E0089582E0809377040E94DF
:1018C0003C0B10927604F1CF0F931F930E94410CB2
:1018D000811529F00E94590A1F910F9108950E94C5
:1018E000590A009178041091790420917A0430917A
:1018F0007B04600F711F821F931FEECF0E94410C6B
:10190000811559F0E0917E04F0917F04309729F021
:101910000190F081E02D0995089580E008950F93DE
:101920001F93CF93DF938B01EA019091760494305B
:1019300059F58093E9008FEF9091E80095FD06C07E
:1019400095ED9A95F1F700008A95B1F78091E8003E
:1019500085FF1AC00E940C0B811111C08091E80014
:1019600085FD06C08091E8008E778093E800F2CF75
:10197000F80181918F018093F100219779F780918F
:10198000E8008E778093E800DF91CF911F910F914F
:101990000895CF93DF93D82FC92F80912C01811107
:1019A00013C048E050E06D2F792F81E00E948F0C2A
:1019B00080E2ED2FFC2FA4EDB1E001900D928A950D
:1019C000E1F7DF91CF9108958091510587FD06C021
:1019D00048E081E050E06D2F7C2FE8CF40E282E0CC
:1019E000F9CFBC0146E050E082E00E948F0C0895E0
:1019F000BC0143E050E082E00E948F0C0895A0E01B
:101A0000B0E0E5E0FDE00C94572AF82EE92EB62E62
:101A1000A72E8A018091BA01CC24C394D12C8A309C
:101A200018F48AE0C82ED12CC1E0D0E06B2D7A2DBD
:101A30008F2D9E2DF8010995811116C02196CC1687
:101A4000DD0694F0CC9FC001CD9F900D900D112428
:101A500020E030E045E34A95F1F700002F5F3F4F6B
:101A600028173907B9F7E2CFCDB7DEB7EAE00C9413
:101A7000732A9091520592FB222720F9281779F0BA
:101A800080FB92F990935205609151057091520537
:101A900084E090E00E946A2B82E00E944D06089547
:101AA00080914D0590915305892B809390019091E1
:101AB0004E059115D9F0892B8093900180912C01CE
:101AC000811521F08091510587FD3FC086E081504E
:101AD00090E022E931E0F90140812F5F3F4F411151
:101AE0009F5F8150C0F7911110924E0540E250E087
:101AF00060E874E080E991E00E94182B892B21F1C5
:101B000080E2E0E9F1E0A0E8B4E001900D928A956E
:101B1000E1F7E0917E04F0917F043097A9F0809185
:101B20002C01811559F08091510587FF07C08091E4
:101B300090018093910186E0809390010280F3816F
:101B4000E02D80E991E0099508958EE1C0CF8115DF
:101B500039F090914D05892B80934D050E94500DD1
:101B60000895811521F00E9465060E94500D089588
:101B7000A4E0B0E0EEEBFDE00C945E2A609161041D
:101B80007091620480916304909164040E94650ADC
:101B900011E0643671058105910578F10E94640CAD
:101BA000DC01CB010296A11DB11D89839A83AB8311
:101BB000BC8380912501909126018B599B4F2091E8
:101BC0002401422F50E0253010F044E050E0BE01E7
:101BD0006F5F7F4F0E94252B82E090E00E94C72913
:101BE000182F811551F00E94590A60936104709377
:101BF00062048093630490936404812F2496E3E04D
:101C00000C947A2AEF92FF921F93CF93DF9300D028
:101C100000D00F92CDB7DEB77B0180E090E00E944C
:101C2000C729182F811509F460C080911701482F2A
:101C300050E0811511F041E050E060911801709181
:101C400019016B597B4FCE0105960E94252B60919F
:101C500072047091730480917404909175040E94D1
:101C6000650A643671058105910538F486E694E0CD
:101C70000E945B0B9D818917C1F181E090E00E9479
:101C8000C729811509F43FC080911F01482F50E0FA
:101C9000853010F044E050E0609120017091210106
:101CA0006B597B4FCE0101960E94252B86E694E06E
:101CB0000E945B0B9D81891326C00E94590A609384
:101CC00072047093730480937404909375048981F3
:101CD0009A81AB81BC8180936E0490936F04A09332
:101CE0007004B093710481E00FC0809166049091FC
:101CF0006704A0916804B091690489839A83AB83D7
:101D0000BC831111E4CF80E040916E0450916F04C8
:101D10006091700470917104F70140835183628374
:101D200073830F900F900F900F900F90DF91CF91D2
:101D30001F91FF90EF900895A0E0B0E0E2EAFEE08E
:101D40000C94592A7C016B0164E670E088E70E94DC
:101D50008927EC0197FD12C000E010E0F701E00FC9
:101D6000F11F849164E670E00E94F827EC010F5F98
:101D70001F4FC016D10611F097FFF0CF0E947A28AE
:101D800081E0CD2B09F080E0CDB7DEB7E8E00C9420
:101D9000752A80915B04811569F080915804811542
:101DA00049F062E070E080EC90E00E949C0E8111AE
:101DB00010925804089580915B048115F9F00E94F7
:101DC000590ADC01CB01805A9541AF4FBF4F809338
:101DD000540490935504A0935604B09357048091F3
:101DE000580481110BC062E070E08EEB90E00E941D
:101DF0009C0E811519F081E0809358040895CF93CB
:101E0000DF93682F81E06A3019F06D3031F480E0A3
:101E10000E947F0FDF91CF910895809126029091CB
:101E2000270226E0FC01ADEBB1E001900D922A956E
:101E3000E1F7603E08F458C026E0FC0111922A95B3
:101E4000E9F7C0912602D091270246E050E0BE019A
:101E50008DEB91E00E94182B9E0120553240892B7A
:101E600041F1C90145E0969587954A95E1F741E032
:101E700050E0BA0102C0660F771F8A95E2F7CB01E6
:101E80006091520470915304862B972BB9016B5FBC
:101E90007F4FE5E076956795EA95E1F702C0440F3C
:101EA000551F6A95E2F7842B952B909353048093EA
:101EB00052042A5F3F4F40912802642F70E0C9010D
:101EC0000E943B2A481B463010F4240F311D211577
:101ED00072E0370710F020E030E0205B3D4F309398
:101EE00027022093260296CFF6E06F9FB0011124BF
:101EF0006E537F4F46E050E00E940F2BA2CFCF934E
:101F0000382FE0912602F0912702E055F24020910F
:101F10002802622F70E0CF010E943B2A281B822FEB
:101F2000311561F066E00E94862AC82FC15010F476
:101F3000CF91089580E20E94FF0EF8CF9F01280FF5
:101F4000311D2115324018F080E0E0E0F0E08E0F06
:101F50009F2F911D805B9D4F9093270280932602B7
:101F6000E7CF0F931F93CF93DF93EC01FC01019018
:101F70000020E9F78F0101501109C017D10728F09F
:101F8000DF91CF911F910F91089589910E94FF0ECB
:101F9000F4CFCF93DF93EC01FE018491811103C054
:101FA000DF91CF9108950E94FF0E2196F5CF0E94F8
:101FB000C90F81E00E947F0F08951F921FB61F92E4
:101FC00011248F939F93AF93BF9380910802811147
:101FD00013C08091F5019091F601A091F701B091A5
:101FE000F8014196A11DB11D8093F5019093F60172
:101FF000A093F701B093F801BF91AF919F918F919A
:102000001F901FBE1F9018952FB7F8948091F5016F
:102010009091F601A091F701B091F8012FBF0895BA
:102020000E9404102091100530911105232B2115D9
:1020300021F080935E0490935F042091120530910B
:102040001305232B211521F080935C0490935D04EC
:10205000E0917E04F0917F04309749F082E0809314
:102060000E050480F581E02D8EE095E00995089538
:10207000611509F44BC0E3E3E80FE33150F4F0E0FD
:10208000EE57F44D0C94E72A0E94540981958093F1
:1020900011050E94101008950E945409F8CF0E9463
:1020A0005409819580931005F4CF0E945409FACF0A
:1020B0000E94740980931205ECCF0E9474098195E7
:1020C000F9CF0E947409819580931305E2CF0E9495
:1020D0007409FACF815D990B21E030E001C0220F35
:1020E0008A95EAF780910F05822B80930F05D1CF57
:1020F00080910D05816080930D05CBCF80910D05FA
:102100008260F9CF80910D058460F5CF4091100574
:102110008D3C59F48091110587FF0DC01092110577
:10212000411559F410920C0508C08E3C81F4809141
:10213000110518169CF3411581F0809112059091BC
:102140001305892B8111A5CF10920B05A2CF8F3CCF
:1021500041F447FFF0CF10921005809111058115D1
:10216000E0CF803D19F41416B4F3E5CF9091120539
:10217000893D29F41916FCF610921205DCCF8A3D30
:1021800019F497FFD8CFF8CF909113058B3D29F420
:1021900097FFD1CF10921305CECF8C3D19F41916AD
:1021A000CCF3C9CF9FE2980F983090F4815D990BE2
:1021B00021E030E0B90102C0660F771F8A95E2F78F
:1021C000CB01809590910F05892380930F05B3CFA4
:1021D0008D3D31F480910D058E7F80930D05ABCF41
:1021E0008E3D21F480910D058D7FF7CF8F3D09F055
:1021F000A2CF80910D058B7FF0CFCF93C82F811593
:10220000C9F18CEF8C0F813AB8F580912C018115C2
:1022100001F18091510587FF1CC0EC2FE695E695F2
:10222000E695F0E0E057FE4F828190E04C2F47703A
:1022300021E030E002C0220F331F4A95E2F78223EB
:102240009323892B81F08C2F0E9420060E94500D31
:102250000AC0E2E9F1E088E991E02191C21799F31F
:102260008E179F07D1F76C2F80E991E00E94230A17
:102270000E94500DCF91089580E28C0F883068F451
:10228000C77081E090E001C0880FCA95EAF7C0915D
:102290004D05C82BC0934D05EBCF8BE58C0F8330DC
:1022A00038F42C2F2452330BC9010E94D709E2CFF6
:1022B000E8E5EC0FEB3150F4F0E0EE0FFF1FE85AC9
:1022C000FE4F808191810E94FD09D4CF83E38C0F62
:1022D000833180F661E08C2F0E943810CBCF8115BE
:1022E00081F19CEF980F913A28F40E9420060E94F9
:1022F000500D089590E2980F983050F4877091E057
:1023000001C0990F8A95EAF7892F0E946506EFCFE1
:102310009BE5980F933028F480E090E00E94D70965
:10232000089598E5980F9B3128F480E090E00E9492
:10233000FD09089593E3980F933118F460E00E942B
:102340003810089510924D0580912C01E2E9F1E0DA
:10235000811529F18091510587FF21C08EE1DF01B0
:102360001D928A95E9F780E090E00E94D70980E00D
:1023700090E00E94FD09109253050E94500D86E0E6
:10238000EEE0F5E0DF011D928A95E9F710920C0569
:1023900010920B0510920D050E941010089586E012
:1023A000DECF0E94A2112FEF84E39CE021508040F9
:1023B0009040E1F700C0000088E19AE00FB6F89481
:1023C000A895809360000FBE90936000FFCFAAE2B3
:1023D000B0E0EDEEF1E10C945E2A8CEC91E0FC01B2
:1023E00001962091F100208321E0843D9207B9F706
:1023F0008091CD01893009F456C0C8F4823009F4C7
:10240000B2C0833009F481C0813071F18091E8005D
:1024100083FFE7C08091CC019091CD019A3008F004
:10242000E0C0E92FF0E0EB56F44D0C94E72A8A3037
:1024300009F488C08B3051F78091CC01813231F79B
:102440008091D0019091D101892B01F78091E80012
:10245000877F8093E8000E94ED0A8091CE018093EF
:102460002C010E94A211D2CF8091CC01813A71F649
:102470008091E800877F8093E8008091D00190915F
:10248000D101892B61F060E080E090E070E00E9473
:10249000940A8091E8008B778093E800B7CF60E2E0
:1024A00084ED91E0F3CF8091CC01813209F0AECF81
:1024B0008091D0019091D101029708F0A7CF80912F
:1024C000E800877F8093E8008091E80082FF18C0D1
:1024D0009091F3008091F200029731F48091F10025
:1024E000813011F0863021F48091F1008093F40165
:1024F0008091E8008B778093E8000E94ED0A86CFF8
:10250000809176048111E0CF81CF8091CC01813A16
:1025100009F07CCF8091D0019091D101892B09F0F5
:1025200075CF8091E800877F8093E8008091E80074
:1025300080FFFCCF80912C018093F1008091E80016
:102540008E77D9CF8091CC01813209F05FCF809115
:10255000E800877F8093E8000E94ED0A8091CF0118
:102560008093C80153CF8091CC01813A09F04ECFBE
:102570008091E800877F8093E8008091E80080FFE9
:10258000FCCF8091C801D8CF803889F0823849F5D6
:102590008091D0018F70873020F58093E900809181
:1025A000EB0085FB882780F91092E90007C0909125
:1025B0000902919592708091C901892B9091E80050
:1025C000977F9093E8008093F1001092F100809142
:1025D000E8008E7723C0811116C08091CE01813032
:1025E00011F18091E80083FF0AC08091E800877FA5
:1025F0008093E8008091EB0080628093EB00AA96C4
:10260000E3E00C947A2A823061F78091CE01811543
:1026100089F01092E9008091E800877F8093E800BC
:102620000E94ED0ADECF81E0933009F080E08093D4
:102630000902EFCF8091D0018F702FEF280F263045
:1026400080F68093E9002091EB0020FFE2CF9330E9
:1026500031F48091EB0080628093EB00DACF9091AF
:10266000EB0090619093EB0021E030E0A90102C003
:10267000440F551F8A95E2F74093EA001092EA0052
:102680008091EB008860E8CF8111ABCF1091CE0133
:102690001F778091E3008078812B8093E300809105
:1026A000E800877F8093E8000E94ED0A8091E800AF
:1026B00080FFFCCF8091E30080688093E30083E09B
:1026C000111101C082E0809376048BCF8058823054
:1026D00008F087CF4091CE015091CF014C3D83E06F
:1026E000580799F583E08A838AE289834FB7F89483
:1026F000DE01139620E03EE051E2E32FF0E050933C
:102700005700849120FF03C082958F703F5F8F70C8
:102710008A30C8F0895C90E08D939D932F5F2431BF
:1027200061F74FBF8091E800877F8093E8006AE2FD
:1027300070E0CE0101960E94940A8091E8008B77A8
:102740008093E8004ECF805DE6CF2091D00130919C
:10275000D101852F99278330910509F160F48130EB
:10276000910509F472C0029709F03BCF8BE390E02A
:10277000ECEFF6E029C08132910509F45AC0829746
:1027800009F02FCF2115310509F469C02130310539
:1027900009F027CF86EB90E0E2E0F6E015C0CA0131
:1027A00099274130B1F18230910509F43AC0892B63
:1027B00009F017CFE9E6F7E0E4918E2F90E0E9E623
:1027C000F7E0009709F40DCF2091E800277F2093D0
:1027D000E8002091D2013091D3018217930708F4C9
:1027E0009C0140E02115310509F03EC041113CC07B
:1027F0008091E80082FDA1CF80917604811509F4D3
:102800009CCF853009F499CF8091E80083FFF0CF09
:1028100094CFE7E5F7E0E4918E2F90E0E7E5F7E06D
:10282000D0CFE9E4F7E0E4918E2F90E0E9E4F7E01F
:10283000C8CF2115310571F02130310509F0D1CE15
:1028400089E090E0E7E2F7E0BFCF82E190E0E7E3E4
:10285000F7E0BACF89E090E0EEE0F7E0B5CF84E4AE
:1028600090E0E8EBF6E0B0CF80917604811509F4B2
:1028700064CF853009F461CF8091E80083FD5DCF9E
:102880008091E80082FDB4CF8091E80080FFAACF5C
:102890009091F3008091F2002115310519F08830F4
:1028A000910550F041E0089709F040E08091E80080
:1028B0008E778093E80096CF44914093F100319653
:1028C000215031090196E8CF803809F08ACE8091F5
:1028D000E800877F8093E8008091CA018093F1002F
:1028E00076CE81117ECE1091CE01123008F079CED5
:1028F0008091E800877F8093E8001093CA010E94CE
:10290000ED0A111581F084E08093760442E061ECD9
:1029100081E00E94B60B42E261EC82E00E94B60BBD
:10292000809176045ECE8091E30087FDECCF81E05C
:10293000EBCF9C014FB7F8948091F5019091F6018F
:10294000A091F701B091F8014FBF821B930B08953E
:10295000FF920F931F93CF93DF93C62FD42F122F85
:102960008115A9F060934B050E9404109093BC015F
:102970008093BB01C77081E001C0880FCA95EAF758
:102980000E94A70DCDB7DEB7E5E00C94782A8091C0
:102990004B05681333C08091BB019091BC010E942C
:1029A00099148430914050F500E20D0FCD17A9F035
:1029B000C770FF24F3948F2D01C0880FCA95EAF7E2
:1029C0000E94B10D083048F48D2F877001C0FF0CB4
:1029D0008A95EAF78F2D0E94A70D812F0E94FD1086
:1029E000812F0E946F11083068F6D77081E001C016
:1029F000880FDA95EAF70E94B10DC4CFC77081E065
:102A000001C0880FCA95EAF7F6CFA0E0B0E0EBE08E
:102A1000F5E10C94592A7C01FC018481811509F4AB
:102A2000A5C061E0C7010E94C908EC01F7018581DA
:102A3000811509F422C4AE015A959E013327411530
:102A4000FFE45F0730F0C11521E0D20708F04DC068
:102A50009E01B901645071096432710528F02B524E
:102A600031092E30310588F4E0914605F0E0EE0F93
:102A7000FF1FEC5EFA4F208131812F3F9FE739071E
:102A800021F02F5F3F4F3183208390E290932D01FF
:102A9000D0934A05C09349059E013052211530421A
:102AA00038F5F7019681903128F0FE01FF27ED33CC
:102AB000F10580F110924B059E013057233231050C
:102AC00008F0E2C384E090E00E94362B9093520518
:102AD00080935105FE01E150F047E232F10508F024
:102AE00061C0E156F44D0C94E72A20E030E0B1CF0C
:102AF0009E01305421153041A0F241155F41A8F2EA
:102B00009E01205A324520323105A0F2CD33D10545
:102B100068F4FE01E05CF54FE491E0932D01F701CC
:102B2000918190934805908190934705FE01E8516B
:102B3000FC47E730F10508F0BDCFEF53F44D0C949E
:102B4000E72A26E241EE61EE0E94A814809150052A
:102B50008770811559F0F7018581811539F08091D1
:102B6000520582FF03C082E00E944D06CDB7DEB75A
:102B7000E8E00C94752A27E245EE65EEE5CF26E203
:102B800041EE60EEE1CF27E245EE64EEDDCF26E2D6
:102B900041EE62EED9CF27E245EE66EED5CF28E2D0
:102BA00041E0EBCF809151058160809351056091A8
:102BB00051057091520584E090E00E946A2B0E94BA
:102BC000A211C4CF80915205886080935205EFCF47
:102BD000809151058260E9CF809151058460E5CFF5
:102BE000809151058860E1CF809152058160EDCFE1
:102BF000809152058260E9CF809151058061D5CFE7
:102C0000809151058062D1CF809151058064CDCFF4
:102C10000E94A211809151058068C7CF8091510513
:102C20008C60C3CF809152058360CFCF80915105D6
:102C30008E7FBBCF80915205877FC7CF8091510592
:102C40008D7FB3CF809151058B7FAFCF80915105A0
:102C5000877FABCF809152058E7FB7CF8091520591
:102C60008D7FB3CF809151058F7E9FCF809151058D
:102C70008F7D9BCF809151058F7B97CF0E94A211B2
:102C8000809151058F7791CF80915105837F8DCFB2
:102C9000809152058C7F99CF8091510582FB9927B5
:102CA00090F921E0922790FB82F990FB83F97DCF88
:102CB00080915205982F909590FB80F990FB81F9B7
:102CC00084CF90915105892F8F7B96FF80646DCFC3
:102CD0000E94A21190915105892F97FB87F9805886
:102CE00064CF61E08EE090E00E944C2B60CF60E00A
:102CF000F9CF90915105892F8F7E94FF806155CF38
:102D000090915105892F8E7F90FF81604ECF9091D9
:102D10005205892F877F93FF886057CF80914C059C
:102D2000811521F085E30E942006C8C289E2FBCF0D
:102D30008115A9F0CA352CE7D20709F475C008F04F
:102D40004CC0C1308CE7D80709F46CC0C3309CE795
:102D5000D90709F461C0C115DC4709F450C0F70177
:102D600087819085009709F463C00E947E07D82F61
:102D7000C92FF701D580C680C2948FE0C822809108
:102D8000500587708115E9F00D2DD114D9F0892FE8
:102D9000807F803451F080E28D0F883090F0C11038
:102DA00004C0892F807E803261F08091520582FFBD
:102DB00008C082E00E944D0680915005877001E0B6
:102DC000811100E0EC2FE295EF70C03C08F0A8C044
:102DD000F0E0E853F44D0C94E72ACB35FCE7DF072D
:102DE00029F1CC35DC4709F0BACF8091520582FB3E
:102DF000882780F991E089270E94390DB0CF0E9481
:102E0000A2113FEF84E39CE0315080409040E1F715
:102E100000C000000E94800A6FEF7FEF80E090E02A
:102E20000E946A2B0E94D11181E0E6CF80E0E4CFBE
:102E3000858100811181811569F0C8010E94950882
:102E4000C82F682FC8010E94AD05B8018C2F0E94C1
:102E50006D068BCFC8010E94E305C82FF6CF1C2F4B
:102E60001F70C03110F01295107FD114B9F01115F8
:102E700069F080E28D0F883010F0D11109C0809187
:102E80004D05812B80934D050E94500D8D2F40C024
:102E900080915305812B80935305F6CF8D2F0E948F
:102EA0006F111115E9F180E28D0F883010F0D1110A
:102EB00004C0812F0E94650606C0109580915305BD
:102EC0008123809353050E94500D2AC01C2F1F7030
:102ED000C07FC03211F01295107FD11549F0D1306A
:102EE00009F46BC0D11409F477C0C114C9F1CECF75
:102EF0008091520582FD30C0D11469F0111539F06E
:102F000080914D05812B80934D050E94500D80E0EE
:102F10000E94FD1005C080E00E946F111111C9CF01
:102F20000115A9F08091500580FD11C0F7011582AF
:102F30008695869586950E948B05C7010E9405158A
:102F4000809150058695869586950E949B0560E048
:102F5000C7010E94C9080ACED11499F0C11004C05B
:102F6000812F0E94A70DDCCFF1E0CF12D9CF809145
:102F70004E05912F9823191799F2812B80934E05B6
:102F8000CFCFC110CDCF812F0E94B10D90914E05B2
:102F9000812F8923811529F0812F809589238093A2
:102FA0004E0580914F05912F9823911509F4B8CFC4
:102FB0001095182310934F05B3CFD11429F026E0B4
:102FC000C21608F0ADCFCCCF35E0C31608F0A8CFBD
:102FD000812F0E94B10DA4CFC114D1F3D93349F48C
:102FE0008FEF97EEE3E081509040E040E1F700C0C2
:102FF00000008D2F0E946F1193CF8C2F86958695A0
:103000008370811569F0813009F08ACF8D2F9C2F54
:103010009370D11002C080E090E00E94FD0980CF43
:103020008D2F9C2F9370D11002C080E090E00E9401
:10303000D70976CF6D2D8D2F0E94381071CF8C2F30
:103040008370811142C0D1102FC04D2F42954695FB
:103050004770440F440F2D2F2F7030E0042E02C014
:10306000220F331F0A94E2F780E090E0D4FF09C0FA
:103070008FE090E002C0880F991F4A95E2F7809593
:103080009095C695C695C370C230B1F0C33089F033
:103090004091CB055091CC05C13049F0822B932B48
:1030A000842395230E9481050E947E0C39CF242B16
:1030B000352B822B932BF6CF822B932B2091CB0594
:1030C0003091CC0582279327EDCFD11491F1C0FF29
:1030D000EBCF4D2F429546954770440F440F2D2F4F
:1030E0002F7030E0042E02C0220F331F0A94E2F743
:1030F00080E090E0D4FF09C08FE090E002C0880F2C
:10310000991F4A95E2F780959095C695C695C3702C
:10311000C230C1F0C33099F04091CD055091CE0539
:10312000C13059F0822B932B842395230E9486056E
:10313000BBCF823008F4B8CFCCCF242B352B822BD9
:10314000932BF4CF822B932B2091CD053091CE057C
:1031500082279327EBCFCF70D11439F08C2F0E94A8
:103160008B058D2F0E94A70D9FCF8D2F0E94B10D33
:103170008C2F0E949B0598CFD23FB1F170F4D03FC5
:10318000C9F0D13F91F0D11409F463C0C11409F41E
:103190005DC08D2F0E94FD1087CFD33F61F1D43FDA
:1031A00091F78091520582FD34C08C2F8F71D1141C
:1031B00001F31EC0D114A9F0F5E0CF1608F074CFCA
:1031C000CF7181E090E09C0102C0220F331FCA95AD
:1031D000E2F7E9018091CD059091CE0582279D27E8
:1031E000A5CF36E0C316EACF8C2F8F71D110C1CF97
:1031F0000E948B0559CF80E090E0D11409F496CF5E
:10320000CF7181E090E002C0880F991FCA95E2F764
:103210008DCFD11489F0CF718C2F0E948B058091B6
:10322000520582FF07C08C2F880F880F880F83609C
:10323000809350058C2FDCCF81E00E944D0682E008
:10324000C81608F431CF0E944D062ECF8C2F8F71F7
:10325000CFCFC11479F0D93349F49FEFE7EEF3E013
:103260009150E040F040E1F700C000008D2F0E9437
:103270006F111ACF8C2F8F717CCFFE01E851FC4764
:10328000E730F10508F459CCC631FCE7DF0709F057
:103290004FCD90914D05811509F440CD892F8A7A43
:1032A00091E0811101C090E090934C0565E381119C
:1032B00001C069E280E991E00E94230A0E94500D5A
:1032C00045CC8091F004803178F48091EF04811531
:1032D00059F0E091A1042091A0043091EB044091B9
:1032E000EA0459E02E1301C008956E2F70E05E9F2E
:1032F000F0011124DF01AE55BB4F14968C91149749
:10330000811561F111968C911197831327C08C91CF
:10331000841324C015968C91159781111FC01296A5
:103320008D919C91A091EC04B091ED048A1B9B0BB4
:103330008430914098F48091F0048F708061809384
:10334000F004E855FB4F80818F70806180838AEEA6
:1033500094E00E9405150E9416060895FB0131961F
:10336000E770C0CFAFE0B0E0E8EBF9E10C94552A8C
:103370008C0186E0F801DE011A9601900D928A9583
:10338000E1F7D8019C911596DC9015971296AD90B7
:10339000BC9013971496FC9014978AEE882E84E0C4
:1033A000982EC090EE04C11020C0F114D9F0D114B1
:1033B00009F482C1C8010E94FC08811509F47CC18E
:1033C00089E0F801D40101900D928A95E1F7B1E00E
:1033D000FB1206C08091EA049091EB040E94ED0874
:1033E0000E946119FF24F3943DC0E090EF04209106
:1033F000EC043091ED04F501E21BF30B9F01E114A5
:1034000009F421C12430314008F0F5C0F11451F322
:103410003091EB0411962C9111978091F00480313A
:1034200008F09DC0FD2C231322C03091EA0439130B
:103430001EC06091F1047091F20417964D915C9159
:1034400064177507A1F4D11084C08F7080618093D8
:10345000F0048AEE94E00E9405158091F004F801D2
:103460008683F12C8F2D2F96ECE00C94712AD110CD
:1034700070C0E091A1048091A004AE2F39E0A813A0
:1034800017C039E08E1337C08A859B850E94ED08EE
:10349000292F22952F70903408F441C02A5F2F7095
:1034A000223008F450C0C8010E940515FE2CDACF66
:1034B0004A2F50E03A9FD0011124AE55BB4F1196D0
:1034C0006C911197261307C06C91961304C0159642
:1034D0006C91611104C0DA011196A770D0CF8AEE09
:1034E00094E00E94051589E0EAEEF4E0DF011D9208
:1034F0008A95E9F7B6CF4E2F50E03E9FF001112498
:10350000EE55FB4F6181261306C06081961303C000
:1035100065816111A6CFFA013196E770B3CF9F7034
:10352000223038F0911551F0F8019681903130F445
:1035300099CF911519F0811509F494CF805E8830E8
:1035400008F490CFB0CF803F08F48CCF815F8330F8
:10355000F7CF8091F00481608093F00482CF231331
:103560001FC02091EA0429131BC04091F10450911F
:10357000F20417962D913C9118974217530781F446
:10358000D1100EC016968C93C8010E94051589E0D3
:10359000F801AAEEB4E001900D928A95E1F722CFEE
:1035A000C8010E94FC08811509F486C0D11409F4F1
:1035B00083C08091F0048032A8F02091EA04309119
:1035C000EB043A832983BC82AB82CD821E828F8337
:1035D0008091F1049091F20499878887CE01019639
:1035E0000E94051589E0F801AAEEB4E001900D9261
:1035F0008A95E1F7F5CE8091F004803108F46FCF21
:10360000F11409F4EFCE3091EB04F801218132136B
:10361000C7CF2091EA042913C3CF4091F104509100
:10362000F204278130854217530709F0B9CFD11032
:10363000B7CF8683C8010E94051589E0D4011D9289
:103640008A95E9F7CFCEE430F140D0F5F11409F4D2
:10365000C9CED11489F12091EB04F801818128139E
:1036600021C08091EA0489131DC02091F10430919A
:10367000F2048781908528173907A1F48091F0041E
:1036800080FD85CF803108F482CF8683982F907F8C
:10369000903F09F479CF982F907F905F8F70892B9E
:1036A000868372CFC8010E94FC0881119BCF809154
:1036B000F00481608093F004C8010E94051592CE49
:1036C00089E0D40114CFA2E1B0E0E9E6FBE10C947B
:1036D0005D2A0A871B872C873D874E875F87688B0B
:1036E000798B8A8BCE010A960E94B21981112AC069
:1036F00089E0FE013A96DE01119601900D928A95BD
:10370000E1F72091A0044091A1048E858115D1F0AC
:1037100030E0C90101968770992748171906E9F02A
:1037200099E0929FD001939FB00D1124AE55BB4FED
:10373000FE01319601900D929A95E1F78093A004D5
:103740000E94160619E08091A1049091A0048913AB
:1037500012C06296E4E00C94792A0E94A2111092A1
:10376000A0041092A10489E0EAEEF4E0DF011D92CA
:103770008A95E9F7E7CF189FC00111248E559B4F1A
:103780000E94B219811529F38091A10490E001965D
:10379000877099278093A104D6CFEF92FF920F9361
:1037A0001F93CF93DF938091C805E091FD01CDE099
:1037B000811131C0CDB7DEB7E6E00C94772AD1E0B5
:1037C000DE0FD093FD01EE2EF12CCE9FF0011124DF
:1037D000E05AFA4F84818115E9F087819085892B21
:1037E00021F481859285019659F40081118122810D
:1037F0003381448155816681778180850E94631B76
:10380000CE9DF001CF9DF00D1124E05AFA4F1482A5
:1038100010925305ED2F8091C805E81780F21092A1
:10382000C8051092FD01C6CFA0E0B0E0EAE1FCE1DE
:103830000C944F2AC0915F0597E0F92E01E010E04B
:103840002DE0222EEE24E39480915E058C1309C0B6
:103850000E94CD1B0E949909CDB7DEB7E2E10C941E
:103860006B2AD0E0FE01EE0FFF1FEC5AFA4F808169
:103870009181F89EB001F99E700D1124625D7E4F1A
:10388000FB01248121115DC03090C805A0E6B5E0A0
:1038900040E050E0612C431508F051C01B96AD90FC
:1038A000BC901C97FB018080918044244A9455244D
:1038B0005A94712C272D30E0F901EE0FFF1FE80D0F
:1038C000F91DC590D490AC14BD0409F09201C11447
:1038D000D10419F073942901EDCF2F3F3207B9F1CC
:1038E000F80102C0EE0FFF1F2A95E2F76E2A980139
:1038F000072C02C0220F331F0A94E2F7215031092E
:103900006216130609F5249EF001259EF00D112480
:10391000E05AFA4FF89ED001F99EB00D1124A25D35
:10392000BE4F12962D913C9113973087278324E048
:10393000248310821182928781871596EC920E94CF
:10394000AB092196C37080CF14961C9214974F5FD9
:103950005F4F1D96A0CF1092CA051092C905109214
:10396000430180915E0580935F050E9499090E9442
:10397000CD1B0895AEE1B0E0E0ECFCE10C944F2AE1
:103980004B8B5C8B6D8B7E8B8F8B792E988F9111EF
:1039900010925305188A198A1A8A86E0FE017396D6
:1039A000DE011A9601900D928A95E1F78E858115B8
:1039B00079F061E0CE010A960E94C9085C01803569
:1039C0002CE7920789F4711411F181E0809343018F
:1039D0000A851B852C853D854E855F85688979899B
:1039E0008A890E94631BCBC081353CE7930729F489
:1039F000711469F00E94AB1CEBCF82359C4739F4FF
:103A0000711429F0809143018111F4CFDECFEEE2F1
:103A1000EE2EE1E0FE2E612C812C912C4424439467
:103A2000512CD7018D919C916FEF3FEF20E0C22E7A
:103A3000D12CF601EE0FFF1FE80FF91F45915491AD
:103A4000A416B50611F0C62ED32E452B21F02F5FFC
:103A50006C2D3D2DECCF10E0BFEFCB16DB0609F44B
:103A60004CC0F701448110914301812F411180E046
:103A7000182F1170D70115963C90159716968C91BA
:103A80001697711409F4FDC0111509F4FAC031102C
:103A900016C041E050E00C2C01C0440F0A94EAF734
:103AA000842B16968C9380915C0590915D05C2974E
:103AB00030F482E390E090935D0580935C05F20121
:103AC00002C0EE0FFF1F2A95E2F79F012150310936
:103AD000D70116968C918217130679F48091C90547
:103AE0009091CA05009709F44EC00E949914C3979B
:103AF00008F449C081E0F7018483612ABFEF8B1A83
:103B00009B0AE7E0EE0EF11CF3E08F16910409F03A
:103B100088CF711409F416C1611409F413C10E940D
:103B200004109093CA058093C9058091C805883018
:103B300030F591E0980F9093C80599E0FE013A9610
:103B4000DE01119601900D929A95E1F72DE0829F8A
:103B5000C0011124805A9A4F29E0FE013196DC0100
:103B600001900D922A95E1F72FEF3FEFDC011A96B5
:103B70003C932E9319971C96BC92AE921B976E960F
:103B8000E2E10C946B2A20915F0580915E05922FF3
:103B9000E0E0F0E007E0EE8EDF2C281314C09093F5
:103BA0005F05EE15FF0509F4A8CF90E0FC01EE0FCC
:103BB000FF1FEC5AFA4F91828082019683709927F9
:103BC00080935E059ACF222E312CF101EE0FFF1F5C
:103BD000EC5AFA4F40815181049FD001059FB00DEE
:103BE0001124A25DBE4F4D915C9111975D8F4C8F5A
:103BF000198E30E0C12CEC2DF0E0EE0FFF1F6C8D24
:103C00007D8DE60FF71F6591749161157105E1F0E7
:103C1000F7010190F081E02DFB8FEA8F30E005C0C5
:103C20006417750709F4198F3F5FE32FF0E0EE0F7B
:103C3000FF1F4A8D5B8DE40FF51F4591549141158F
:103C4000510571F7C394D7CF498D4115B9F0EE8D69
:103C5000FD2D3C1508F0FD0151E05483EE15FF05E4
:103C600009F49DCF291305C0EA17FB0711F49F5FE4
:103C7000937091012F5F3F4F23708FCFE0E0F0E012
:103C8000F8CF90E0311023C0B20102C0660F771F59
:103C90002A95E2F79B01215031092817390731F4A1
:103CA000411509F44DC0C4010E94AB09F20102C0E4
:103CB000EE0FFF1FCA94E2F76F01C094D70116966A
:103CC0008C9116978C2116968C93132D16CFAC01E0
:103CD0000C2C02C0559547950A94E2F79C0121509F
:103CE000310982239323892B39F540FF25C0D70161
:103CF00012968D919C91892BD9F087E0FE01319627
:103D0000DF011D928A95E9F70E9404109C018B83C4
:103D10009C8384E08D83F70192818381792F98873A
:103D2000898709811A8144E05E816F810E94631B4B
:103D3000D70115961C92BACFB42FB1703B2EB6CFD7
:103D4000312EB4CF90915F0580915E05981729F0D0
:103D50000E94141C611013CF3BCE0E94CD1B109209
:103D6000CA051092C9050E949909F4CFA6E0B0E0F7
:103D7000ECEBFEE10C945D2A0E9404108C01809112
:103D80007C0490917D048017910779F019821A8242
:103D90000E940410BC0149815A8180E090E00E9499
:103DA000BA1C10937D0400937C042696E4E00C94E6
:103DB000792AACE0B0E0EFEDFEE10C94522AFE016E
:103DC000319688E0DF011D928A95E9F784E4E82EB8
:103DD00081E0F82E8F0198E4C92E91E0D92E3F01A1
:103DE000AA24A394B12C3EE4832E31E0932EF70154
:103DF00081917F018F3F09F441C0F894E82FE2954B
:103E0000EF70F0E021A18F70A50102C0440F551F93
:103E10008A95E2F7CA01922F982B91A392A18095DF
:103E2000892382A3789400C0E8E4F1E031E0512CCA
:103E300021912F3F89F0A22FA295AF70A05EB0E034
:103E40008C9190E02F7002C0959587952A95E2F7A6
:103E50008170811509F485C080E0582A330F8E16D1
:103E60009F0631F7F701319780818F3F11F00E9453
:103E70002D0950EA5A95F1F7D8015C920F5F1F4F58
:103E8000CE14DF0409F0B3CF48E050E0B3018EEF69
:103E900091E00E94182B892B09F065C00091070260
:103EA0008091B9018115F1F08091B7019091B8012D
:103EB0000E9499140597B0F010E0065F1D4F44E092
:103EC00050E06EEF71E0C8010E94182B892B41F081
:103ED00084E0EEEFF1E0D80101900D928A95E1F7D0
:103EE0001092B9010E94410CE0910702811509F47A
:103EF00083C07E01B9E0EB0EF11C84E0D7011D9276
:103F00008A95E9F70E2F10E0065F1D4F8091BA01E8
:103F10008A30E8F542E05EE0B701C8010E94FF0C7C
:103F2000811509F457C048EB5DE0B701C8010E9454
:103F3000FF0C811509F44EC01092BA01809106025F
:103F400090E044E050E0B701865F9D4F0E94182B3F
:103F500021E02093B601892B79F52C96EFE00C94A3
:103F60006E2A832F7ACF88E0F301AEEFB1E00190A3
:103F70000D928A95E1F70091070281E08093B901E3
:103F80000E9404109093B8018093B7018DCF809167
:103F9000B4019091B5010E949914843F914008F0BA
:103FA000B9CF8091B6018115C1F284E0F701119279
:103FB0008A95E9F71092B601E0910602F0E0E65F1B
:103FC000FD4F89859A85AB85BC8580839183A283CB
:103FD000B383C3CF8091BA018F3F39F40E9404109C
:103FE0009093B5018093B401DCCF8F5F8093BA01C9
:103FF0008A3008F4A3CFF2CFF0E0E65FFD4F808176
:104000009181A281B3818093660490936704A09309
:104010006804B093690486E694E00E945B0B809389
:104020006504C0906A04D0906B04E0906C04F0903A
:104030006D048091B0019091B101A091B201B09155
:10404000B301C816D906EA06FB0609F486CFC0926A
:10405000B001D092B101E092B201F092B3010E949E
:10406000410C81117ACF0E94590AC61AD70AE80A70
:10407000F90AC0927804D0927904E0927A04F0921E
:104080007B046BCFCDB7DEB72F970FB6F894DEBFAA
:104090000FBECDBF85B7806885BF85B7806885BFF7
:1040A00084B7877F84BF0FB6F894A895809160008D
:1040B000886180936000109260000FBE80E890E0FD
:1040C0000FB6F89480936100909361000FBE8BE26D
:1040D00099E090938F0180938E010E943C0B0E9487
:1040E000E60B8091E20084608093E20078948091F6
:1040F0007604811599F08091E9001091EC001795F4
:10410000112717958F70182B1092E9008091E80005
:1041100083FD0E94E7111F701093E90082E084BDC7
:1041200093E095BD9AEF97BD80936E00109278044E
:104130001092790410927A0410927B040E94410C30
:10414000809301010E94410C81110E94D828809126
:1041500001018091010191E08927880F880F8093E8
:10416000070294E0981B9093060284E90E942D09AF
:1041700086E60E942D0987E90E942D0986EC0E949F
:104180002D0908E411E0D8018D918D018F3F11F0C8
:104190000E942D09B1E00E341B07A9F788E0EAE080
:1041A000F2E0DF01282F1D922A95E9F7EEEFF1E00A
:1041B000DF011D928A95E9F780E090E00E94362B9E
:1041C000863E9E4F09F464C066EE7EEF80E090E08C
:1041D0000E946A2B60E082E090E00E944C2B60E03D
:1041E00083E090E00E944C2B1092CC051092CB05FE
:1041F00060E074E184E090E00E946A2B60E086E079
:1042000090E00E944C2B6FEF87E090E00E944C2BD7
:1042100040E050E0BA0188E090E00E945E2B60E050
:1042200084E290E00E944C2B60E087E190E00E94E5
:104230004C2B60E08CE090E00E944C2B60E08DE025
:1042400090E00E944C2B19821A821B821C821D82D4
:104250001E821F82188648E050E068E170E0CE01BF
:1042600001960E943C2B40E050E0BA0180E290E0D1
:104270000E945E2B40E050E0BA018FE090E00E9487
:104280005E2B40E050E0BA0183E190E00E945E2B9B
:1042900082E090E00E942E2B8093120284E090E056
:1042A0000E94362B90935205809351050E94D91E8F
:1042B000EFEFF6E721E0E150F0402040E1F700C0E9
:1042C00000000E94D91E0E94410C11E0E82FE12756
:1042D000EE0FEE0FF0E0E65FFD4F808181FF08C03A
:1042E0006FEF7FEF80E090E00E946A2B0E94800ACF
:1042F00083E090E00E942E2B90E00E9481050E94B6
:10430000410C8127880F8093500480E88093280215
:104310000E9483276BE070E084E897E00E949C0E87
:10432000811509F43FC08091500465E070E081FD83
:10433000A6C08FE797E00E949C0E811599F16DE071
:1043400070E08DE697E00E949C0E811559F10E9465
:10435000590ADC01CB01805A9541AF4FBF4F809382
:10436000540490935504A0935604B0935704E0E589
:10437000F2E080E092E0DF019C011D92215030408C
:10438000E1F7F0932702E09326028FEF9FEF9093DF
:1043900053048093520481E080935B04809358041B
:1043A000109251040E94410C811102C00E94DB282E
:1043B00082E091E090937F0480937E04CE01019689
:1043C0008D87292E80917604853049F4809176047A
:1043D000853009F457C00E94A2110E947E0C0E94F1
:1043E000D91E03E112E0EAE0EE2EE2E0FE2ED70154
:1043F000F80191918D9122E0EB31F20709F495C01B
:104400009817B9F30E94410C882ED12CD701CD907A
:104410007D01F80191908F019C1441F19C24B12CF5
:10442000AA24A394892D8A218115C1F08114B1F0A9
:10443000B982DA820E9404109C838B83F1E0FD83B1
:1044400091E08C2D8A21811101C090E09E834981E9
:104450005A816B817C818D810E94BA1CB394AA0C15
:1044600026E0B212DFCFF8013197C082D39438E052
:10447000D312CCCF0E94640C332433945BC08AE700
:1044800097E059CF80917604843031F10E94C90EB3
:104490001092080288E190E0A0E40FB6F894A89585
:1044A000809360000FBEA093600083B7817F84601B
:1044B00083BF83B7816083BF7894889583B78E7FED
:1044C00083BF0FB6F894A8958091600088618093AF
:1044D0006000109260000FBE80910902811509F4FE
:1044E00075CF0E94D91EEAE0F2E08191811105C0EA
:1044F000B2E0E231FB07C9F769CF80E189BD82E113
:1045000089BD09B400FEFDCF8091D8008F7D8093D6
:10451000D8008091E00082608093E0008091E0000C
:1045200081FDFCCF0E94A21151CF98136BCF0E9446
:10453000B61E312C0E94410C811509F4DBC080911C
:104540004301811501F18091C9059091CA05009739
:10455000D1F00E94991420915C0530915D052817D7
:10456000390788F490915F0580915E05981709F4EA
:1045700043C20E94141C10925D0510925C051092BB
:10458000CA051092C905C0901405D09015050D2CD0
:10459000000CEE08FF0810910A01A12EB12CE4E1F5
:1045A000F5E081E090E03296A816B9060CF02DC235
:1045B0006091220270912302809124029091250241
:1045C0000E94650A2B013C019601A701F7FE04C079
:1045D00020E030E040E050E0A0E6BAEE0E94ED2A94
:1045E00069877A878B879C8788EC8A9D90018B9D51
:1045F000300D1124032E000C440B550B240D351DDA
:10460000461D571DA5E0B0E00E94ED2A9B01AC01BC
:1046100069857A858B859C850E94A62A49015A0165
:10462000213F31054105510510F070EF872E99ECBF
:1046300049165104610471040CF18091460590E023
:10464000019669E170E00E94922A80934605880FE6
:10465000991FFC01EC5EFA4F11821082183108F0AC
:1046600017E11F5F10930A010E94590A609322020A
:10467000709323028093240290932502A2E0CA162D
:10468000D104E104F1040CF4812C60911E027091BC
:104690001F0280912002909121020E94650A6B0105
:1046A0007C01B5E6CB16D104E104F10484F00E944C
:1046B000590A60931E0270931F0280932002909308
:1046C000210280911D0280931C0280921B02109196
:1046D0001C02A0911B02A11BBB0BA70196010E940B
:1046E000F82A24E630E040E050E00E94C82A120F89
:1046F00010931D0280915B04811509F497C080918D
:10470000590490915A040E949914C29708F46EC0FB
:104710000E94041090935A048093590480E592E01B
:1047200090932702809326020E94410C811509F480
:10473000B8C188EF97E00E94C90F8091CD05909194
:10474000CE050E945D05823009F473C108F069C18D
:1047500081116CC180EF97E00E94D70F80914805CE
:104760000E94740B9C01C9012F5F3F4FFC014081E7
:104770004032C9F30E94B10F85ED97E00E94C90F46
:10478000809147050E94740B9C01C9012F5F3F4F28
:10479000DC014C914032C9F30E94B10F81ED97E0EA
:1047A0000E94C90FC0904905D0904A0580910B0125
:1047B00090910C01C816D90609F041C180912F02D1
:1047C000803209F03CC129E232E0C9012F5F3F4F3E
:1047D000DC014C914032C9F30E94B10F8FEC97E09D
:1047E0000E94C90F80912D010E94FF0E80915204FA
:1047F00090915304892B09F059C180915804811577
:10480000A9F00E94590A0091540410915504209176
:10481000560430915704601B710B820B930B6F3F52
:104820007F4F8F4F9F4710F40E94C90E31100E9496
:10483000DB0E86E0EEE0F5E0AD85B22D01900D9245
:104840008A95E1F7D0900F05F090100510911105B1
:10485000E0901205009113051092100510921105B9
:104860001092120510921305812F8F29811509F4DA
:1048700045C080915E0490915F040E9499149C0150
:1048800080910C05811509F4F4C125313105B0F191
:104890008F3F19F08F5F80930C05F11459F00E943F
:1048A000540991E01F140CF09FEF899F802D112473
:1048B00080931005111559F00E94540991E01116CA
:1048C0000CF09FEF899F802D11248093110580911A
:1048D0001005811599F0C0901105C11479F00E945E
:1048E0004609811101C081E0809310058C2D0E9442
:1048F0004609811509F4B4C180931105802F8E29D2
:10490000811509F445C080915C0490915D040E947A
:1049100099149C0180910B05811509F4A5C12135DD
:104920003105B0F18F3F19F08F5F80930B05E114D3
:1049300059F00E94740991E01E140CF09FEF899FBA
:10494000802D112480931205011559F00E947409DD
:1049500091E010160CF09FEF899F802D1124809319
:10496000130580911205811599F0E0901305E1146B
:1049700079F00E944609811101C081E080931205FF
:104980008E2D0E944609811509F46CC18093130590
:1049900080910F05D81219C080911005811511F072
:1049A0008F1113C020911105211511F012130DC0A4
:1049B00090911305911511F0091307C0309112055C
:1049C000311103C0822B892B81110E94101086E0C7
:1049D000ED85F22DAEE0B5E001900D928A95E1F7FC
:1049E0000E947E0C90916004891709F4EBCC8093AF
:1049F00060040E94590AE6CC0E94CD1B1092CA05A1
:104A00001092C9050E949909BECD40815181052EA1
:104A1000000C660B770BC40ED51EE61EF71E019622
:104A2000C2CD833049F087ED97E096CE8AEE97E0CD
:104A300093CE84EE97E090CE8DED97E08DCED09220
:104A40000C01C0920B0180E280932F02E12CF12C2B
:104A500010922E020EE212E0A12CB12C5AE0452E4B
:104A6000512C612C712CC701B601A30192010E9447
:104A7000A62A605D603341F4A114B10429F0CD2869
:104A8000CE28CF2809F460E2F80162938F01690112
:104A90007A01FFEFAF1ABF0A25E0A216B10419F799
:104AA00092CE8FE897E00E94C90FA0CE80915B0460
:104AB000811509F4A2CE8091510481119ECE0E94ED
:104AC000DB0E20915204309153042115310509F475
:104AD00094CE80E041E050E0082F10E04A01082E1B
:104AE00002C0880C991C0A94E2F7B4016223732374
:104AF000672B11F48F5FF0CF9091500490FF9DC011
:104B0000880F880F880F37E0380F20E093E08093FC
:104B10000F0120931201309310019093130124E6AA
:104B200030E047E050E06DE071E088E70E9428281F
:104B3000892B09F062CEA80125E0440F551F2A9564
:104B4000E1F78091500480FF84C0E0E3F2E080E26E
:104B5000DF011D928A95E9F7E2E5F1E0FF87EE8734
:104B60006EE471E086E5482E81E0582E97E0E92E4C
:104B7000DD24D394EE85FF85A191FF87EE87FB01AD
:104B80008191BF01840F952F911D9C01205B3D4FAA
:104B90003901EA2FF0E0E05DFD4F80E090E03E2D2E
:104BA000381B3987FD2C082E01C0FF0C0A94EAF748
:104BB000530100E0D5011D915D011F212985201BB6
:104BC000277030E0B12F022E01C0BB0F0A94EAF724
:104BD0003195219531092770332701C016952A9503
:104BE000EAF71B2B2081122B10830F5F083011F77F
:104BF000019631968830910591F6EE85FF854E1627
:104C00005F0609F0B7CF04E610E020E230E040E3B1
:104C100052E060E488E70E944F28892B09F0EDCD2F
:104C2000809490948091520490915304882199210A
:104C30009093530480935204E0CD980136952795C4
:104C400036952795922F8295880F80763FE1380F11
:104C50005ECF405B5D4F04E610E020E230E0D9CF4C
:104C600081E04ACE81E092CE2B30310508F05CCE57
:104C70008FCE2B30310508F00DCE40CE78941F92A8
:104C80001FB61F9211248F939F93AF93BF93809170
:104C9000F5019091F601A091F701B091F80101960C
:104CA000A11DB11D8093F5019093F601A093F7012A
:104CB000B093F801BF91AF919F918F911F901FBE4C
:104CC0001F9018951F920F920FB60F9211242F93D9
:104CD0003F934F935F936F937F938F939F93AF9384
:104CE000BF93EF93FF938091E10082FF09C0809111
:104CF000E20082FF05C08091E1008B7F8093E1009C
:104D00008091DA0080FF24C08091D80080FF20C00D
:104D10008091DA008E7F8093DA008091D90080FF45
:104D20009BC080E189BD82E189BD09B400FEFDCF51
:104D300081E0809376048091CB01811109C00E94AB
:104D40003C0B0E94E60B8091E20084608093E200BD
:104D50008091E10080FF17C08091E20080FF13C0C6
:104D60008091E2008E7F8093E2008091E20080617A
:104D70008093E2008091D80080628093D80019BCB3
:104D800085E0809376048091E10084FF29C08091C2
:104D9000E20084FF25C080E189BD82E189BD09B4BC
:104DA00000FEFDCF8091D8008F7D8093D800809148
:104DB000E1008F7E8093E1008091E2008F7E8093FE
:104DC000E2008091E20081608093E2008091CA015C
:104DD000811509F447C084E08093760480917604BD
:104DE0008091E10083FF27C08091E20083FF23C010
:104DF0008091E100877F8093E10082E080937604D8
:104E00001092CA018091E1008E7F8093E100809131
:104E1000E2008E7F8093E2008091E20080618093C7
:104E2000E20042E060E080E00E94B60B8091F0007A
:104E300088608093F000FF91EF91BF91AF919F91B7
:104E40008F917F916F915F914F913F912F910F9033
:104E50000FBE0F901F90189519BC109276041092F7
:104E6000CB0176CF8091E30087FF02C083E0B4CF0F
:104E700081E0B2CF1F920F920FB60F921124FF92D2
:104E80000F931F932F933F934F935F936F937F9352
:104E90008F939F93AF93BF93CF93DF93EF93FF9342
:104EA00009EE10E0F8018081C091EC00C795CC2795
:104EB000C7958F70FC2EF82A1082C0EFD0E0888151
:104EC000877F888378940E94E711F8011082888197
:104ED00088608883CF2DCF70C083FF91EF91DF91E1
:104EE000CF91BF91AF919F918F917F916F915F9182
:104EF0004F913F912F911F910F91FF900F900FBEF7
:104F00000F901F9018951092B9008CE08093B80014
:104F10000895A0E0B0E0EFE8F7E20C94562AB82E2E
:104F2000EB010E9404106C01EE24E394F12CC431D7
:104F3000D10560F025E0E22EF12CCF3FDC0731F007
:104F4000CE0164E170E00E943B2A7B0184EAA82E36
:104F500094E8992E1092BC00A092BC000E9404100C
:104F6000182F092F8091BC0087FF0CC08091B900D9
:104F7000887F8830F9F08091B900887F8031D1F046
:104F80000FEF08C0812F902F0E949914E816F906A0
:104F900048F70EEF1FEFCF3FDC07E1F2C6010E949A
:104FA0009914C817D907B0F6C801CDB7DEB7EBE042
:104FB0000C94722AB092BB009092BC000E94041024
:104FC000182F092F8091BC0087FF0AC02091B900DB
:104FD000287F283111F0203499F600E010E0E4CF6A
:104FE000812F902F0E949914E816F90658F7D1CF17
:104FF0000F931F93CF93DF93EB018093BB0084E863
:105000008093BC000E940410182F092F8091BC00CF
:1050100087FF11C02091B900287F81E090E02832FD
:1050200011F480E090E0919581959109DF91CF9105
:105030001F910F910895CF3FDC0741F3812F902FEF
:105040000E949914C817D90708F78EEF9FEFEECF8B
:10505000A0E0B0E0EEE2F8E20C94592A6B018A017C
:10506000F22EE32E622F732F0E948927AC01E601F6
:105070000C0D1D1DC017D10711F057FF09C084E9A1
:105080008093BC00CA01CDB7DEB7E8E00C94752A66
:105090006F2D7E2D89910E94F827AC01EBCFA0E007
:1050A000B0E0E5E5F8E20C94592AC62F6A017901CF
:1050B000B8010E9489279C0197FD0DC0B8018C2F73
:1050C0000E94F8279C01E601EC0CFD1CCE15DF05C3
:1050D00011F037FF09C084E98093BC00C901CDB746
:1050E000DEB7E8E00C94752AB80189910E94F82790
:1050F0009C01ECCF84E98093BC0008958EE14A9B2B
:1051000002C08A95E1F74A9BFECF08955A9880E243
:105110008A95F1F75A9A0895FC013BE03A95F1F728
:1051200098E020E080E031E040E14A95F1F7880F17
:105130004A9B02C08160232742E04A95F1F70000B4
:1051400040E14A95F1F79A9579F790E19A95F1F750
:1051500099B132E03A95F1F7000040E14A95F1F754
:1051600092FB992790F992272081920F90830895BE
:10517000A1E0B0E0EEEBF8E20C945B2A19828C011E
:105180007C01E60EF11C0E151F0541F481E09981AA
:10519000911180E02196E6E00C94772A0E947E2807
:1051A000CE0101960E948C28F80181938F01EBCFEC
:1051B000529A5A9A089552985A9AEA9AE9E6F0E071
:1051C00080818F7C808308956150770B91E001C0CE
:1051D000990F6A95EAF7692F90E021E0611108C004
:1051E000911599F05A9A80E28A95F1F75A980895A4
:1051F000362F3823311539F05A9A922730E23A95F2
:10520000F1F76695EBCF5A98F9CF5A98ECCFFF9209
:105210000F931F93CF93DF93EC018C01060F111DA9
:10522000C017D10729F4CDB7DEB7E5E00C94782A92
:10523000F9900E94862868E08F2D0E94E428F0CF24
:105240001F920F920FB60F9211240F931F932F935B
:105250003F934F935F936F937F938F939F93AF93FE
:10526000BF93EF93FF93CF93DF930F92CDB7DEB74A
:1052700019820E947E28CE0101960E948C28082F58
:10528000069506950695982F92959570202F257076
:10529000920F292F237096959695920F98279770C5
:1052A0008981892B811509F05CC0043008F059C050
:1052B00080E18A95F1F75A9A529A82E08A95F1F73D
:1052C00000C05A9888E0089F80011124D801AC5E84
:1052D000BE4F1696ED91FC9117973097A9F060910B
:1052E00056017091570114962D913C911597260FF8
:1052F000371F11968D919C911297680F791F139605
:105300004C9113978C910995F801EC5EFE4F6381E7
:10531000611551F02091560130915701848195819A
:10532000820F931F0E9407290E94862880E18A9598
:10533000F1F75A9852985A9A80E18A95F1F7F80154
:10534000EC5EFE4F6081611551F020915601309165
:10535000570181819281820F931F0E94B8280E9479
:105360007E280F90DF91CF91FF91EF91BF91AF9188
:105370009F918F917F916F915F914F913F912F916D
:105380001F910F910F900FBE0F901F9018950F93C4
:105390001F93CF93DF938C0104970CF064C0F894B3
:1053A000529A5A9885E08A95F1F70000C02FC69569
:1053B000C570802F8570C80F8C2F8370C695C695D9
:1053C00093E0000F111F9A95E1F7C80FC8018C2BCD
:1053D000EC010E94862800C068E08C2F0E94E4281F
:1053E00090E19A95F1F752985A9A4A9B35C087E016
:1053F00090E04A9933C0F801EC5EFE4F638161157D
:1054000061F0209156013091570184819581820F7E
:10541000931F0E94B828811519F10E947E2880E20E
:105420008A95F1F75A98529A90E19A95F1F7F80116
:10543000EC5EFE4F6081611551F020915601309174
:10544000570181819281820F931F0E9407290E9438
:105450008628789481E008C000C0C7CF019749F43E
:10546000529A5A9A789480E0DF91CF911F910F91D0
:10547000089500C0BECFAA1BBB1B51E107C0AA1FE5
:10548000BB1FA617B70710F0A61BB70B881F991FE5
:105490005A95A9F780959095BC01CD0108952F925A
:1054A0003F924F925F926F927F928F929F92AF92B4
:1054B000BF92CF92DF92EF92FF920F931F93CF9301
:1054C000DF93CDB7DEB7CA1BDB0B0FB6F894DEBF98
:1054D0000FBECDBF09942A88398848885F846E84BE
:1054E0007D848C849B84AA84B984C884DF80EE8008
:1054F000FD800C811B81AA81B981CE0FD11D0FB611
:10550000F894DEBF0FBECDBFED010895991B79E081
:1055100004C0991F961708F0961B881F7A95C9F743
:105520008095089597FB072E16F4009407D077FD19
:1055300009D00E943B2A07FC05D03EF49095819546
:105540009F4F0895709561957F4F0895A1E21A2E9F
:10555000AA1BBB1BFD010DC0AA1FBB1FEE1FFF1F17
:10556000A217B307E407F50720F0A21BB30BE40B67
:10557000F50B661F771F881F991F1A9469F76095AE
:105580007095809590959B01AC01BD01CF01089568
:10559000052E97FB1EF400940E94DF2A57FD07D0CA
:1055A0000E94A62A07FC03D04EF40C94DF2A5095E3
:1055B0004095309521953F4F4F4F5F4F08959095FF
:1055C0008095709561957F4F8F4F9F4F0895EE0F97
:1055D000FF1F0590F491E02D09940E94002BA59FD8
:1055E000900DB49F900DA49F800D911D11240895DE
:1055F000B7FF0C94ED2A0E94ED2A821B930B0895AD
:10560000A29FB001B39FC001A39F700D811D112403
:10561000911DB29F700D811D1124911D0895FB01F4
:10562000DC0102C005900D9241505040D8F708951A
:10563000FB01DC0104C08D910190801921F44150DF
:105640005040C8F7881B990B0895FB01DC0102C08C
:1056500001900D9241505040D8F70895F999FECF2E
:1056600092BD81BDF89A992780B50895A8E1B0E070
:1056700042E050E00C94722BDC01A40FB51F4150A6
:10568000504048F0CB01840F951F2E910E944D2B66
:1056900041505040D0F70895262FF999FECF92BD82
:1056A00081BDF89A019700B4021639F01FBA20BDE7
:1056B0000FB6F894FA9AF99A0FBE08950396272F19
:1056C0000E944D2B0E944C2B252F0E944D2B242FE6
:1056D0000C944D2B0196272F0E944D2B0C944C2B94
:1056E000DC01CB01FC01F999FECF06C0F2BDE1BDA2
:1056F000F89A319600B40D9241505040B8F7089591
:10570000F894FFCF44104C104F1055106A106A10D7
:105710006A106A106A106A106A106A1058105D10D8
:105720006110671078107E108210C412EB12F11213
:10573000EB12F11244136613F1126414711416166D
:1057400080161E16E815EC152216F01526163216D0
:10575000FC1579160016361604163A166116081648
:105760003E1668160E1644164C16F4152A16F81531
:105770002E1612164816581671167716E2151A16B6
:105780008716BF15C315A115BB15C715CB15CF15AA
:105790002F172F1766176617FD171A1890179017EF
:0857A0001F18AB18BC18BC185F
:1057A800FF01910AC90CF10CF80C01FF000021005F
:1057B8007F22000300000001000000000000000438
:1057C8000100000004050000000000000120B800EE
:1057D800A252000000B2003900000000AC002D0207
:1057E80000000001946697C6F4F5F6F73133000817
:1057F8001018181008006504E200E900EA00B50076
:10580800B600B700CD008301CC008A019201940153
:105818002102230224022502260227022A02B300BB
:0E582800B4006F0070009F01CB019F02A00230
:00000001FF
