:100000000C94E60E0C94030F0C94030F0C947A31AD
:100010000C94030F0C94030F0C94030F0C94030F18
:100020000C94030F0C94030F0C94BC2E0C94942F7F
:100030000C9400190C94030F0C94030F0C94030FF1
:100040000C94030F0C94030F0C94030F0C94030FE8
:100050000C94030F0C94982E0C94030F0C94030F24
:100060000C94030F0C94030F0C94030F0C94030FC8
:100070000C94030F0C94030F0C94030F0C94030FB8
:100080000C94030F0C94030F0C94030F0C94030FA8
:100090000C94030F0C94030F0C94030F0C94030F98
:1000A0000C94030F0C94030F0C94030F150018000D
:1000B00000001900100000000A000B0000000900F9
:1000C0000D00000000AF00AE0000000000003E5B2D
:1000D0004F5B3E003E6B4F6B3E001C3E7C3E1C0067
:1000E000183C7E3C18001C577D571C001C5E7F5E30
:1000F0001C0000183C180000FFE7C3E7FF000018D1
:1001000024180000FFE7DBE7FF0030483A060E0046
:10011000262979292600407F05050700407F05250F
:100120003F005A3CE73C5A007F3E1C1C0800081C5C
:100130001C3E7F0014227F2214005F5F005F5F007F
:1001400006097F017F00006689956A006060606033
:10015000600094A2FFA2940008047E04080010200E
:100160007E20100008082A1C0800081C2A08080025
:100170001E10101010000C1E0C1E0C0030383E38E3
:100180003000060E3E0E06000000000000000000D9
:100190005F000000000700070000147F147F1400B8
:1001A000242A7F2A1200231308646200364956204D
:1001B0005000000807030000001C2241000000411D
:1001C000221C00002A1C7F1C2A0008083E08080088
:1001D0000080703000000808080808000000606017
:1001E00000002010080402003E5149453E00004234
:1001F0007F4000007249494946002141494D330082
:100200001814127F10002745454539003C4A4949DA
:100210003100412111090700364949493600464954
:1002200049291E00000014000000004034000000B6
:100230000008142241001414141414000041221464
:1002400008000201590906003E415D594E007C122A
:1002500011127C007F49494936003E41414122004C
:100260007F4141413E007F49494941007F090909D9
:1002700001003E41415173007F0808087F000041A2
:100280007F4100002040413F01007F0814224100CF
:100290007F40404040007F021C027F007F04081026
:1002A0007F003E4141413E007F09090906003E4171
:1002B00051215E007F09192946002649494932002B
:1002C00003017F0103003F4040403F001F204020CA
:1002D0001F003F4038403F006314081463000304CC
:1002E000780403006159494D4300007F41414100BA
:1002F000020408102000004141417F000402010275
:100300000400404040404000000307080000205423
:10031000547840007F28444438003844444428003E
:10032000384444287F0038545454180000087E098B
:1003300002001824241C78007F080404780000447C
:100340007D4000002040403D00007F102844000018
:1003500000417F4000007C04780478007C0804049D
:1003600078003844444438007C18242418001824A9
:1003700024187C007C0804040800485454542400C9
:1003800004043F4424003C4040207C001C204020CA
:100390001C003C4030403C004428102844004C9055
:1003A00090907C004464544C4400000836410000A6
:1003B000000077000000004136080000020102043E
:1003C00002003C2623263C00000000000000000044
:1003D0000000000000000000C0E0F0F8F81800C0C5
:1003E000F0FCFEFFFFFFFFFFFFFF7E0000000000AC
:1003F0000000000080C0E0E0E0E0E0E0E0E0C0807D
:100400000000000080C0E0E0E0E0E0E0E0E0C0806C
:10041000000000E0E0C0C0E0E0E0E00000E0E0C09C
:10042000C0E0E0E0E0E0C0800000000080C0E0E06C
:10043000E0E0E0E0E0E0C08000000000000000003C
:10044000000000000000E0F0F0F0E0ECEEF7F370E8
:1004500020007C7C7C7E007E7E7E7F7F7F00008013
:10046000C0E07E5B4F5BFEC00000C000DCD7DEDE7C
:10047000DED7DC00C000000000000000000000002B
:10048000000000000000000000000000000000006C
:1004900000F8FCFEFFE000FFFFFFFFFFFF80FFFF13
:1004A000FFFFFFFFFFFFFF1F07010000000000002C
:1004B000000000FFFFFF8100000000000081C3C3B7
:1004C000C30000FFFFFF8100000000000081FFFF6C
:1004D000FF0000FFFFFF01000000000000FFFFFF22
:1004E000010000000001FFFFFF0000FFFFFF9D1C57
:1004F0001C1C1C1C1C9DDFDFDF0000000000000036
:100500000000000000000F1F3F7F7F7F7F7F3F1EA6
:100510000C001F1F1F3F003F3F3F7F7F7F00307B4E
:100520007F7830202030787F3B0003000F7F0F0F53
:100530000F7F0F000300000000000000000000001B
:1005400000000000000000000000000000000000AB
:1005500000030F1F3F3F3F3F1F1F3F3F7F7F7F3FF6
:100560003F1F3F7F7F7F7F7C7878381C0F00000023
:10057000000000000103070707070707070703013B
:10058000000000000103070707070707070703012B
:100590000000000707070000000000000007070731
:1005A0000000000000000707070000000103070724
:1005B000070707070707030100000000000000000D
:1005C000000000000000000000000000000000002B
:1005D000000000000000000000000000000000001B
:1005E000000000000000000000000000000000000B
:1005F00000000000000000000000000000000000FB
:10060000000000000000000005010902A1018502B0
:100610000901A100050919012908150025019508FE
:10062000750181020501093009311581257F950287
:100630007508810609381581257F950175088106A1
:10064000050C0A38021581257F950175088106C0C1
:10065000C005010906A1018506050719E029E7156E
:100660000025019508750181020507190029EF157C
:1006700000250195F07501810205081901290595EC
:100680000575019102950175039101C005010906E7
:10069000A101050719E029E7150025019508750155
:1006A00081029501750881010507190029FF1500D0
:1006B00026FF009506750881000508190129051512
:1006C000002501950575019102950175039101C001
:1006D00009023B00020100A0FA0904000001030125
:1006E00001000921110100012244000705810308CE
:1006F00000010904010001030000000921110100AB
:10070000012284000705820320000112010002007B
:10071000000008534601000100010200010C0343E0
:10072000006F0072006E0065000000100366006F2D
:10073000006F007300740061006E00000004030984
:100740000400DA0281FFD9F1DB20A4A62EAF00A0BD
:10075000C0D30000A1C8D30000AED580A81F408D33
:10076000142000202020202020200043415053004E
:10077000635214001A00080015001700A852042143
:100780001645074109000A00E0001D001B00060095
:1007900019000500000000000000E2002C00290004
:1007A0003100130012000C0018001C00340033212B
:1007B0000F440E420D000B00E500380037003600F4
:1007C000100011000000000000002A002B0028008B
:1007D000000000000000000000000000E300E10055
:1007E0000100010001000000000000000000000006
:1007F00000000000000000000000010001000100F6
:100800000000000026002500240000000000E50094
:1008100023002200210000000000000020001F0033
:100820001E00270000000000000001000100010080
:100830000000350224022502560057000000350052
:100840002302220221026700000000001E021F0294
:1008500020022D0200000000000001000100010044
:100860000000000000000000000000000000000088
:100870000000000000000000000000000000000078
:100880000000000000000000000001000100010065
:100890000100000040004100420000000000000094
:1008A0003D003E003F000000000000003A003B0019
:1008B0003C00000000000000000000000000D1002B
:1008C0000000000000000000000000000000000028
:1008D000D000CD00CE00CF000000000000000000DE
:1008E0000000000000000000000000000000D20036
:1008F000000000000000360237020000E30026027C
:1009000027022F02300200000000000000002F002C
:1009100030000000000000000000010001000100A4
:100920000000000000000000000000000000E500E2
:1009300001000100E40000000000000000000000D1
:1009400000000000000000000000010001000100A4
:10095000000000000000000000000000E300E000D4
:1009600001000100E10000000000000000000000A4
:100970000000000000000000000000000000000077
:100980000000000000000000000000000000E40083
:100990004F00520051005000000000004C00E200E7
:1009A000E400000000000000000000000000000063
:1009B000202020206162636465666768696A6B6CE9
:1009C0006D6E6F707172737475767778797A313273
:1009D0003334353637383930524542545F2D3D5B1C
:1009E0005D5C233B27602C2E2F2020200000000080
:1009F00000000000000000000000000000000000F7
:100A000000000000000000000000000000000000E6
:100A100000000000000000000000000000000000D6
:100A200000000000000000000000000000008080C6
:100A300080404020201008040204081010202040AC
:100A40004080800000000000000000000000000066
:100A50000000000000000000000000000000000096
:100A60000000000000000000000000000000000086
:100A70000000000000000000000000000000000076
:100A80000000000000000000000000000000000066
:100A90000000000000000000000000000000003F17
:100AA000C101010202040404040202010101000068
:100AB00000000000800000408080400000303000D6
:100AC000000000010264180412C2CA2488F0808069
:100AD0004040404020202020101010100808080836
:100AE00004040404020202020101010100000000EA
:100AF00000000000000000000000000000000000F6
:100B000000000000000000000000000000000000E5
:100B10000000000000000000000000000000E018DD
:100B20000601000000000000000000000080838338
:100B300040404040202121201010101008080808D3
:100B40000404040402020202010101010000000089
:100B50000000000000000000000000000000000095
:100B60000000000000000000000000000000000085
:100B70000000000000000000000000000000000075
:100B80000000000000000000000000008080808065
:100B9000404040402020202010101010080F08086E
:100BA00004040404020408101020204040414224A0
:100BB00098C088888C9C1C1E0E0600000000000057
:100BC0000000000000000000000000000000000025
:100BD0000000000000000000000000000000000015
:100BE0000000000000000000000000000000000005
:100BF00000000000000000000000000000000000F5
:100C000000000000000000000000000000000000E4
:100C100000000000000000000000000000000000D4
:100C200000000000000000000000000000000000C4
:100C300000000000000000000000000000000000B4
:100C400000000000000000000000000000000000A4
:100C50000000000000000000000000000000000094
:100C60000000000000000000000000000000000084
:100C70000000000000000000000000000000000074
:100C80000000000000000000000000000000000064
:100C90000000000000000000000000000000000054
:100CA0000000000000000000000080808040402024
:100CB000201008040204081010202040408080000A
:100CC0000000000000000000000000000000000024
:100CD0000000000000000000000000000000000014
:100CE0000000000000000000000000000000000004
:100CF00000000000000000000000000000000000F4
:100D000000000000000000000000000000000000E3
:100D100000000000000000000000003FC1010102CF
:100D200002048444444282010101000000000000EA
:100D30008000004080804000003030000000000152
:100D40000204040808102040808080804040404019
:100D500020202020101010100808080804040404A3
:100D60000202020201010101000000000000000077
:100D70000000000000000000000000000000000073
:100D80000000000000000000000000000000000063
:100D900000000000000000000000E0180601000054
:100DA0000C03000218190005FE8083834040404078
:100DB0002021212010101010080808080404040441
:100DC0000408304080800000018698600000000028
:100DD0000000000000000000000000000000000013
:100DE0000000000000000000000000000000000003
:100DF00000000000000000000000000000000000F3
:100E000000000000000000008080808040404040E2
:100E10002020202010101010080F080804040404DB
:100E200002020202010101010000000000000000B6
:100E30000000000000000000000000060F0F070384
:100E40000361F0F8FC600101013C78F8F0700000EB
:100E50000000000000000000000000000000000092
:100E60000000000000000000000000000000000082
:100E70000000000000000000000000000000000072
:100E80000000000000000000000000000000000062
:100E90000000000000000000000000000000000052
:100EA0000000000000000000000000000000000042
:100EB0000000000000000000000000000000000032
:100EC0000000000000000000000000000000000022
:100ED0000000000000000000000000000000000012
:100EE0000000000000000000000000000000000002
:100EF00000000000000000000000000000000000F2
:100F000000000000000000000000000000000000E1
:100F100000000000000000000000000000000000D1
:100F20000000000000008080804040202010080465
:100F300002040810102020404080800000000000C3
:100F400000000000000000000000000000000000A1
:100F50000000000000000000000000000000000091
:100F60000000000000000000000000000000000081
:100F70000000000000000000000000000000000071
:100F80000000000000000000000000000000000061
:100F9000000000000000003FC1010102020484447F
:100FA0004442820101010000000000008000004076
:100FB000808040000030300000000001026418040E
:100FC00012C2CA2488F08080404040402020202067
:100FD0001010101008080808040404040202020299
:100FE00001010101000000000000000000000000FD
:100FF00000000000000000000000000000000000F1
:1010000000000000000000000000000000000000E0
:10101000000000000000E018060100000C030002C0
:1010200018190005FE808383404040402021212084
:101030001010101008080808040404040202020238
:10104000010101010000000000000000000000009C
:101050000000000000000000000000000000000090
:101060000000000000000000000000000000000080
:101070000000000000000000000000000000000070
:1010800000000000808080804040404020202020E0
:1010900010101010080F08080404040402020202D1
:1010A000010101010000000000000000000000003C
:1010B0000000000000000000000000000000000030
:1010C0000000000000000000000000000000000020
:1010D0000000000000000000000000000000000010
:1010E0000000000000000000000000000000000000
:1010F00000000000000000000000000000000000F0
:1011000000000000000000000000000000000000DF
:1011100000000000000000000000000000000000CF
:1011200000000000000000000000000000000000BF
:1011300000000000000000000000000000000000AF
:10114000000000000000000000000000000000009F
:10115000000000000000000000000000000000008F
:10116000000000000000000000000000000000007F
:10117000000000000000000000000000000000006F
:10118000000000000000000000000000000000005F
:1011900000000000000000000000000000000080CF
:1011A0008040404020202020201804020102040832
:1011B000102020404080800000000000000000005F
:1011C000000000000000000000000000000000001F
:1011D000000000000000000000000000000000000F
:1011E00000000000000000000000000000000000FF
:1011F00000000000000000000000000000000000EF
:1012000000000000000000000000000000000000DE
:101210000000003FC10101020204040404020201B3
:1012200000000000000000008000004080804000BE
:1012300000303000000000010204040808102040C3
:1012400080808080404040402020202010101010DE
:101250000808080804040404020202020101010152
:10126000000000000000000000000000000000007E
:10127000000000000000000000000000000000006E
:10128000000000000000000000000000000000005E
:101290000000E0180601000000000000000000004F
:1012A00000808383404040402021212010101010F6
:1012B0000808080804040404040830408080000082
:1012C000018698600000000000000000000000009F
:1012D000000000000000000000000000000000000E
:1012E00000000000000000000000000000000000FE
:1012F00000000000000000000000000000000000EE
:10130000808080804040404020202020101010101D
:10131000080F0808040404040204081010202040E8
:1013200040414224180000000000000000000000BE
:1013300000000000000000000000000000000101AB
:10134000010000000000000000000000000000009C
:10135000000000000000000000000000000000008D
:10136000000000000000000000000000000000007D
:10137000000000000000000000000000000000006D
:10138000000000000000000000000000000000005D
:10139000000000000000000000000000000000004D
:1013A000000000000000000000000000000000003D
:1013B000000000000000000000000000000000002D
:1013C000000000000000000000000000000000001D
:1013D000000000000000000000000000000000000D
:1013E00000000000000000000000000000000000FD
:1013F00000000000000000000000000000000000ED
:1014000000000000000000000000000000000000DC
:1014100000000000000000000000000000008080CC
:1014200040404020100804020102040810204080BF
:10143000800000000000000000000000000000002C
:10144000000000000000000000000000000000009C
:10145000000000000000000000000000000000008C
:10146000000000000000000000000000000000007C
:10147000000000000000000000000000000000006C
:101480000000000000000000000000000000003F1D
:10149000C10101020204040404020201010100006E
:1014A000000000000000008000008000006060007C
:1014B0000001020404080810102020408080808071
:1014C000404040402020202010101010080808083C
:1014D00004040404020202020101010100000000F0
:1014E00000000000000000000000000000000000FC
:1014F00000000000000000000000000000000000EC
:101500000000000000000000000000000000C030EB
:101510000C03000000000000000000000080868630
:1015200040404040212222201111101008080808D4
:1015300004040404040830408080000001869860A0
:10154000000000000000000000000000000000009B
:10155000000000000000000000000000000000008B
:10156000000000000000000000000000000000007B
:10157000000000000000000000000000808080806B
:10158000404040402020202010101010080F080874
:1015900004040404020408101020204040414224A6
:1015A0001800000000000000000000000000000023
:1015B0000000000000000000000001010100000028
:1015C000000000000000000000000000000000001B
:1015D000000000000000000000000000000000000B
:1015E00000000000000000000000000000000000FB
:1015F00000000000000000000000000000000000EB
:1016000000000000000000000000000000000000DA
:1016100000000000000000000000000000000000CA
:1016200000000000000000000000000000000000BA
:1016300000000000000000000000000000000000AA
:10164000000000000000000000000000000000009A
:10165000000000000000000000000000000000008A
:10166000000000000000000000000000000000007A
:10167000000000000000000000000000000000006A
:10168000000000000000000000000000000000005A
:1016900000000000000000000000808080804040CA
:1016A0002010080402040810204080800000000080
:1016B000000000000000000000000000000000002A
:1016C000000000000000000000000000000000001A
:1016D000000000000000000000000000000000000A
:1016E00000000000000000000000000000000000FA
:1016F00000000000000000000000000000000000EA
:1017000000000000000000000000007E82020204D1
:101710000408080808040402010100000000000099
:1017200000000080000080000060600001010204F1
:1017300004080810102020408080808040404040F5
:1017400020202020101010100808080804040404A9
:10175000020202020101010100000000000000007D
:101760000000000000000000000000000000000079
:101770000000000000000000000000000000000069
:1017800000000000000000000000C0300C0300005A
:1017900000000000000000000080868640404040BD
:1017A0002122222011111010080808080404040442
:1017B000040830408080000001869860000000002E
:1017C0000000000000000000000000000000000019
:1017D0000000000000000000000000000000000009
:1017E00000000000000000000000000000000000F9
:1017F00000000000000000008080808040404040E9
:101800002020202010101010080F080804040404E1
:10181000020408101020204040414224180000001B
:1018200000000000000000000000000000000000B8
:1018300000000000000001010100000000000000A5
:101840000000000000000000000000000000000098
:101850000000000000000000000000000000000088
:101860000000000000000000000000000000000078
:101870000000000000000000000000000000000068
:101880000000000000000000000000000000000058
:101890000000000000000000000000000000000048
:1018A0000000000000000000000000000000000038
:1018B0000000000000000000000000000000000028
:1018C0000000000000000000000000000000000018
:1018D0000000000000000000000000000000000008
:1018E00000000000000000000000000000000000F8
:1018F00000000000000000000000000000000000E8
:1019000000000000000000000000000000000000D7
:10191000000000000000808080804040201008040B
:101920000204081020408080000000000000000039
:1019300000000000000000000000000000000000A7
:101940000000000000000000000000000000000097
:101950000000000000000000000000000000000087
:101960000000000000000000000000000000000077
:101970000000000000000000000000000000000067
:101980000000000000001C34C40404040808080817
:101990000804040201010000000000008000004073
:1019A000808040000030300001010202040404087D
:1019B000081020408080808040404040202020202F
:1019C000101010100808080804040404020202029F
:1019D0000101010100000000000000000000000003
:1019E00000000000000000000000000000000000F7
:1019F00000000000000000000000000000000000E7
:101A0000000000000000E0180601000000000000D7
:101A100000000000008083834040404020212120BE
:101A200010101010080808080404040404083040CA
:101A30008080000001869860000000000000000027
:101A40000000000000000000000000000000000096
:101A50000000000000000000000000000000000086
:101A60000000000000000000000000000000000076
:101A700000000000808080804040404020202020E6
:101A800010101010080F08080404040402040810C1
:101A900010202040404142241800000000000000B7
:101AA0000000000000000000000000000000000036
:101AB0000000010101000000000000000000000023
:101AC0000000000000000000000000000000000016
:101AD0000000000000000000000000000000000006
:101AE00000000000000000000000000000000000F6
:101AF00000000000000000000000000000000000E6
:101B000000000000000000000000000000000000D5
:101B100000000000000000000000000000000000C5
:101B200000000000000000000000000000000000B5
:101B300000000000000000000000000000000000A5
:101B40000000000000000000000000000000000095
:101B50000000000000000000000000000000000085
:101B60000000000000000000000000000000000075
:101B70000000000000000000000000000000000065
:101B800000000000000000000000000000000080D5
:101B90008040404020202020201804020102040838
:101BA0001020204040808000000000000000000065
:101BB0000000000000000000000000000000000025
:101BC0000000000000000000000000000000000015
:101BD0000000000000000000000000000000000005
:101BE00000000000000000000000000000000000F5
:101BF00000000000000000000000000000000000E5
:101C000000060D31C10101010202020404020201B9
:101C100000000000000000008000004080804000C4
:101C200000303000000000010204040808102040C9
:101C300080808080404040402020202010101010E4
:101C40000808080804040404020202020101010158
:101C50000000000000000000000000000000000084
:101C60000000000000000000000000000000000074
:101C70000000000000000000000000000000000064
:101C80000000E01806010000000000000000000055
:101C900000808383404040402021212010101010FC
:101CA0000808080804040404040830408080000088
:101CB00001869860000000000000000000000000A5
:101CC0000000000000000000000000000000000014
:101CD0000000000000000000000000000000000004
:101CE00000000000000000000000000000000000F4
:101CF0008080808040404040202020201010101024
:101D0000080F0808040404040204081010202040EE
:101D100040414224180000000000000000000000C4
:101D200000000000000000000000000000000101B1
:101D300001000000000000000000000000000000A2
:101D40000000000000000000000000000000000093
:101D50000000000000000000000000000000000083
:101D60000000000000000000000000000000000073
:101D70000000000000000000000000000000000063
:101D80000000000000000000000000000000000053
:101D90000000000000000000000000000000000043
:101DA0000000000000000000000000000000000033
:101DB0000000000000000000000000000000000023
:101DC00000000000000000000000000011241FBE01
:101DD000CFEFDAE0DEBFCDBF11E0A0E0B1E0EAE78F
:101DE000FDE602C005900D92A636B107D9F725E0B1
:101DF000A6E6B1E001C01D92A73AB207E1F70E9442
:101E0000B1280C947C360C9400009093A10580932B
:101E1000A00508959093A3058093A205089521E05D
:101E200030E002C0220F331F8A95E2F78091A205AD
:101E30009091A305822B932B0E940A0F089521E015
:101E400030E002C0220F331F8A95E2F720953095CB
:101E50008091A2059091A305822393230E940A0FEB
:101E60000895983098F5863088F5E82FF0E086E000
:101E7000989FE00DF11D11248E2F877041E001C065
:101E8000440F8A95EAF783E0F695E7958A95E1F79E
:101E9000EE0FFF1FEE0FFF1FE653FB4F20E030E079
:101EA00070E05191DF011197CB01022E02C096958F
:101EB00087950A94E2F78170819585278423852789
:101EC0008C932F5F3F4F2430310559F70895983098
:101ED00078F5863068F5E82FF0E086E0989FE00D11
:101EE000F11D11249E2F977083E0F695E7958A9552
:101EF000E1F7EE0FFF1FEE0FFF1FE653FB4F40E031
:101F000050E080E0219130E0092E02C036952795FF
:101F10000A94E2F721703327042E01C0220F0A949D
:101F2000EAF7822B4F5F5F4F4430510559F7089510
:101F300080E008958091780490917704981301C00F
:101F400008958F5F8770FACF90912505809589233A
:101F500080932505282F277021110DC0891759F06E
:101F60009091270592FF07C08695869586950E94D9
:101F70001F0F109225050895982F909580912205A6
:101F800089238093220508957830B8F46630A8F448
:101F90008630B0F4E62FF0E096E0799FE00DF11D79
:101FA000112490E3899FE00DF11D1124EE0FFF1F16
:101FB000E059F84F85919491089580E090E008955C
:101FC00081E0FCCF803E9105D9F1C8F481339105C1
:101FD00009F482C048F48932910509F472C08A324A
:101FE000910509F480C0089589339105E9F082389C
:101FF0009105D1F08533910509F45EC00895843EC2
:102000009105D9F148F4823E910539F1833E91055D
:1020100049F181EE90E00895863E9105C9F1873E31
:10202000910509F43EC008952091260523702111E1
:1020300064C02091270523FF14C089E290E0089531
:102040002091260520FD45C03091270530FF09C0AD
:1020500024FD24C083EE90E008952091260522FD02
:10206000F7CF08952091260522FD44C03091270521
:1020700030FD43C024FFF5CF11C02091270521FF7B
:10208000F0CF8091260584FD09C087EE90E0089589
:102090002091260523FFE5CF24FFF7CF80E090E0D5
:1020A00008952091260523FD2BC03091270531FF8F
:1020B000E1CF84EE90E008952091260525FFD1CF51
:1020C000BCCF2091260525FD1EC02091270523FFAA
:1020D000C8CF89E390E008952091260526FFC1CF5F
:1020E0008AE290E008952091260526FFBACF81E389
:1020F00090E0089582EE90E0089580EE90E00895DB
:1021000086EE90E0089585E390E00895909126058D
:1021100092FF10C041E0282F2471243009F040E0E4
:1021200031E0282F2871283009F030E0431711F0F2
:102130002CE0822793FF10C041E0282F2471243126
:1021400009F040E031E0282F2871283109F030E013
:10215000431711F02CE082273091270530FF10C083
:1021600051E0282F2171213009F050E041E0282F63
:102170002871283009F040E0541711F029E0822737
:1021800031FF10C041E0282F2171213109F040E0DA
:1021900031E0282F2871283109F030E0431711F081
:1021A00029E0822794FD877E08951F93CF93DF93C4
:1021B0000E94E20FEC01811522E5920708F04EC063
:1021C000811540E5940708F0C7C0883E9105E0F40A
:1021D000803E910560F4853A910570F4049738F4D7
:1021E00081E0219709F080E0C82F50E0D52FCE0183
:1021F000DF91CF911F9108958D5C9109D065439730
:10220000B0F3C0E0D0E0F3CFC11580E4D807E0F42C
:10221000C11590E2D90708F0B8C0CE019A95811592
:102220009F4178F78D2F0E948610182FCE01992795
:102230000E94E20F212F30E0322F2227E901CC2724
:10224000DF71C82BD92BD3CFCE0199270E94E20F83
:10225000CC27DF70C82BD92BD06AC9CF803842E594
:102260009407C8F5803652E5950708F056C0C0348B
:1022700082E5D807D0F4C03292E5D90708F046C00D
:102280008C2F8695869520E2829FC0011124C37011
:1022900021E030E0A90102C0440F551FCA95E2F7C2
:1022A000EA01C82BD92BDD68A2CF8C2F86958695A5
:1022B000877050E2859FC0011124C37021E030E097
:1022C000A90102C0440F551FCA95E2F7EA01C82BC5
:1022D000D92BDC688CCF803C52E5950758F48F7180
:1022E000C03AD24578F590E0982F8827EC01C46F6A
:1022F000D06A7DCF805C9245809708F082CFDC2F3A
:10230000CC27CC27DF71C06FD06A71CFCF71D0E0FE
:10231000DC2FCC27C16FD06A6ACF869586958770EF
:1023200020E2829FC0011124C37021E030E0A901A6
:1023300002C0440F551FCA95E2F7EA01C82BD92BFA
:10234000DA6855CF0E948610C82FD0E0DC2FCC274A
:10235000CC27DF71D0624BCF8F710E94861065E071
:10236000D695C7956A95E1F7CF70D0E0DC2FCC27E2
:10237000282F30E084FF05C054E0220F331F5A9508
:10238000E1F7C22BD32BD06932CF8D2F8F710E94F2
:102390008610182FCE0199270E94E20F212F30E0DE
:1023A000322F222722273F71282B392BE901D2CF48
:1023B000A0E0B0E0EEEDF1E10C94B2328C01E090DF
:1023C000A205F090A3058091A0059091A105E82AAF
:1023D000F92ACFE0D0E0CC24C394D12CC6010C2E36
:1023E00002C0880F991F0A94E2F78E219F21892B42
:1023F00049F4219798F7B12C8B2DCDB7DEB7E9E0E2
:102400000C94CE32BC2EB8018C2F0E94C40F0E94B7
:10241000D510019771F3F0CF0F931F93CF93FC0169
:1024200087819085009799F48581008111818115BC
:1024300091F0611581F0C8010E94D811C82F682F52
:10244000C8010E94310FB8018C2F0E94C40FCF9198
:102450001F910F910895C8010E94670FC82FF3CFF5
:10246000CF93DF93D82FC92F0E94D8116D2F7C2FC7
:102470000E94C40F0E94D510DF91CF910895FC01F6
:1024800084818115B1F0878190850097A1F00E9429
:10249000D510282F92959F709630C1F088F4925FE6
:1024A0009F70923030F4203FB1F060F481E0283E1C
:1024B00060F080E00895808191810E943012E9CF20
:1024C0009A5FEECF81E0243FA1F7089581E0283E96
:1024D00020F0213FF9CF81E00895089580E008952C
:1024E000F894E82FE295EF70F0E041A18F7021E0C1
:1024F00030E0B90102C0660F771F8A95E2F7CB0181
:10250000962F9095942391A392A1892B82A37894DE
:102510000895282F35EB2303C001112497FF04C031
:1025200080589109892F089580589F4FFBCF809143
:10253000E40480FD14C081FD14C082FD16C08091AA
:10254000E304811581F08E3180F420E5829FC00183
:1025500011246EE170E00E94EC32862F089584E130
:10256000089588E2089588E0089580E508958091AF
:10257000E40480FD17C081FD17C082FD19C0809161
:10258000E204811599F0883298F428E0829FC00116
:10259000112468E270E00E94EC326115710551F07F
:1025A000862F089562E0FCCF64E0FACF61E0F8CFB7
:1025B00068E0F6CF81E0089510923205109231055F
:1025C000EBE2F1E087E491E02581211102C0148261
:1025D000168237968E179F07B9F70895AC01309190
:1025E000340560913305232F621301C00895822FB3
:1025F00090E0FC01EE0FFF1FE75DFA4F0190F081C4
:10260000E02DE417F50791F467E0649FF001659F02
:10261000F00D1124E55DFE4F41E044832313E6CF26
:102620000196837099278093340508950196282F89
:102630002370DACF9C01809129018115C9F0809126
:10264000260587FF15C0862F869586958695603F5F
:10265000E0F4F901E80FF11D677081E090E001C03E
:10266000880F6A95EAF7809592818923828308957D
:10267000F9013296285F3F4F8191681303C0DF0153
:1026800011971C92E217F307B9F708952FB7F89442
:102690006091C6017091C7018091C8019091C901F4
:1026A0002FBF08950F931F93462F572FBC012FB7AD
:1026B000F8948091C6019091C701A091C801B09192
:1026C000C9012FBF8C019D01041B150B260B370B75
:1026D000C901B8011F910F91089587E797E790937B
:1026E00001088093000888E19AE00FB6F894A89555
:1026F000809360000FBE90936000FFCF8091C50172
:1027000008950895FC019B018091A3019091A4017B
:102710008617970740F0672B29F48091E8008E77A1
:102720008093E800C90140E0009741F4411106C0E0
:102730008091E80082FF2FC080E0089520914D0431
:102740002115A9F12530A9F12091E80023FD2DC024
:102750002091E80022FDECCF2091E80020FFE4CF9B
:102760003091F3002091F200009719F028303105E4
:1027700058F041E02830310509F040E02091E800B0
:102780002E772093E800D0CF41914093F10001973C
:102790002F5F3F4FE9CF80914D04811541F0853087
:1027A00041F08091E80083FFC3CF81E0089582E08B
:1027B000089583E0089580919D0187FF13C0809163
:1027C000E80082FF06C08091E8008B778093E800E4
:1027D000089580914D048111F2CF089580914D04A8
:1027E0008115D9F38091E80080FFF8CF8091E8004F
:1027F0008E77ECCF2091E4003091E50095E6A901B9
:102800008091EC008170811531F08091E80080FFAB
:1028100006C080E008952091E80022FD1AC0809152
:102820004D04811589F0853089F08091EB0085FD9C
:102830000FC02091E4003091E5004217530701F3E7
:102840009A95E9F684E0089582E0089583E008957A
:1028500081E00895E8EDF0E080818E7F8083109222
:10286000E2001092DA001092E100A0EEB0E08C914C
:1028700081608C9380818F77808319BCA7EDB0E055
:102880008C918E7F8C9380818F7E808310929C01AF
:102890000895FC01AC014C5F5F4F8FEF61E39191B4
:1028A000892728E030E0982F990F87FF09C0892FEA
:1028B000862721503040B9F7E417F50781F70895CE
:1028C000892FF7CFEF92FF920F931F93CF93DF9350
:1028D000782F692F2091FA013091FB01C9018752AD
:1028E00092402B5A3F4F21303240F8F020E032E046
:1028F000281B390B4091290450912A04E72FF62F09
:10290000DC01A95DBD4FBC01620F731FEE24E3948F
:10291000F12C8617970760F050932A0440932904FE
:10292000CDB7DEB7E6E00C94D1322CE732E0E2CF4F
:1029300024913D912317A1F08D0101501109E80167
:1029400028839C01C5E036952795CA95E1F7E701F4
:1029500002C0CC0FDD1F2A95E2F79E014C2B532BB2
:1029600001963196D6CF8091A405853128F0883222
:10297000F8F484EE9EE019C08091A60590E00196DF
:1029800065E070E00E94EC328093A60524E030E020
:10299000281B390B4CE752E0249FC001259F900D66
:1029A000349F900D1124805A9E4E0E946214089507
:1029B0008091A50590E00196817099278093A505E7
:1029C00001978C7792708451964FEFCF982F909308
:1029D000E900242F762F50E0981731F07091EC0029
:1029E0002091ED005091F00021FD06C09F5F9730CF
:1029F00071F78093E90008953091EB003E7F3093AA
:102A0000EB003091ED003D7F3093ED003091EB0015
:102A100031603093EB007093EC002093ED00509305
:102A2000F0002091EE0027FDE1CF0895A0E0B0E096
:102A3000ECE1F5E10C94B332C8EDD0E088818F7EF3
:102A40008883E7EDF0E080818160808384E082BF4D
:102A500081E080939C0188818E7F888302EE10E064
:102A6000F80110821092DA0081EEC82ED12CF60106
:102A7000108288818F7788838881806888838881A5
:102A80008F7D888319BC10924D0410929B01109287
:102A9000D60110929A0190EEE92EF12CF701808177
:102AA0008B7F808388818160888342E060E080E062
:102AB0000E94E614F60180818E7F8083F801808178
:102AC00081608083808188608083F70180818E7F30
:102AD0008083888180618883CDB7DEB7E8E00C947D
:102AE000CF3280914E04811110C08091D800806156
:102AF0008093D8008AE18A95F1F700C08091D900CF
:102B000080FF0AC081E080934E0481E090914E04E2
:102B1000913009F080E0089582E080934E040E9495
:102B20002A1410924D04F1CF0F931F930E94711538
:102B3000811529F00E9446131F910F9108950E945C
:102B4000461300914F04109150042091510430918C
:102B50005204600F711F821F931FEECF0E947115E8
:102B6000811559F0E0915504F0915604309729F001
:102B70000190F081E02D0995089580E008950F936C
:102B80001F93CF93DF938B01EA0190914D04943012
:102B900059F58093E9008FEF9091E80095FD06C00C
:102BA00095ED9A95F1F700008A95B1F78091E800CC
:102BB00085FF1AC00E94FA13811111C08091E800AC
:102BC00085FD06C08091E8008E778093E800F2CF03
:102BD000F80181918F018093F100219779F780911D
:102BE000E8008E778093E800DF91CF911F910F91DD
:102BF0000895CF93DF93D82FC92F80912901811198
:102C000013C048E050E06D2F792F81E00E94BF157E
:102C100080E2ED2FFC2FA5EAB1E001900D928A959C
:102C2000E1F7DF91CF9108958091260587FD06C0D9
:102C300048E081E050E06D2F7C2FE8CF40E282E059
:102C4000F9CFBC0146E050E082E00E94BF15089534
:102C5000A0E0B0E0EEE2F6E10C94B132F82EE92EFD
:102C6000B62EA72E8A0180919201CC24C394D12C38
:102C70008A3018F48AE0C82ED12CC1E0D0E06B2D48
:102C80007A2D8F2D9E2DF8010995811116C0219660
:102C9000CC16DD0694F0CC9FC001CD9F900D900D19
:102CA000112420E030E045E34A95F1F700002F5F62
:102CB0003F4F28173907B9F7E2CFCDB7DEB7EAE0C3
:102CC0000C94CD329091270592FB222720F92817EA
:102CD00079F080FB92F99093270560912605709119
:102CE000270584E090E00E94663682E00E94A40FEF
:102CF00008958091220590912805892B8093680181
:102D0000909123059115D9F0892B809368018091CA
:102D10002901811521F08091260587FD3FC086E0BD
:102D2000815090E02AE631E0F90140812F5F3F4F6A
:102D300041119F5F8150C0F791111092230540E22D
:102D400050E067E574E088E691E00E947233892BD9
:102D500021F180E2E8E6F1E0A7E5B4E001900D9210
:102D60008A95E1F7E0915504F09156043097A9F067
:102D700080912901811559F08091260587FF07C0B0
:102D8000809168018093690186E0809368010280E8
:102D9000F381E02D88E691E0099508958EE1C0CF9A
:102DA000811539F090912205892B809322050E948C
:102DB00079160895811521F00E94BC0F0E947916A2
:102DC0000895A4E0B0E0E7EEF6E10C94B83260912B
:102DD00038047091390480913A0490913B040E9428
:102DE000521311E0643671058105910578F10E9456
:102DF0009415DC01CB010296A11DB11D89839A8334
:102E0000AB83BC838091220190912301845C9B4F12
:102E100020912101422F50E0253010F044E050E095
:102E2000BE016F5F7F4F0E947F3382E090E00E947F
:102E30002132182F811551F00E94461360933804F7
:102E40007093390480933A0490933B04812F249625
:102E5000E3E00C94D432EF92FF921F93CF93DF9371
:102E600000D000D00F92CDB7DEB77B0180E090E0BC
:102E70000E942132182F811509F460C0809114013D
:102E8000482F50E0811511F041E050E060911501AC
:102E900070911601645C7B4FCE0105960E947F33D2
:102EA0006091490470914A0480914B0490914C04C4
:102EB0000E945213643671058105910538F48DE343
:102EC00094E00E9449149D818917C1F181E090E04E
:102ED0000E942132811509F43FC080911C01482FC6
:102EE00050E0853010F044E050E060911D01709199
:102EF0001E01645C7B4FCE0101960E947F338DE3FF
:102F000094E00E9449149D81891326C00E944613B3
:102F10006093490470934A0480934B0490934C044B
:102F200089819A81AB81BC8180934504909346044A
:102F3000A0934704B093480481E00FC080913D0402
:102F400090913E04A0913F04B091400489839A83FC
:102F5000AB83BC831111E4CF80E0409145045091D4
:102F600046046091470470914804F70140835183FF
:102F7000628373830F900F900F900F900F90DF91EB
:102F8000CF911F91FF90EF900895A0E0B0E0EBEC9F
:102F9000F7E10C94B3327C016B0164E670E088E7E2
:102FA0000E94E32FEC0197FD12C000E010E0F70152
:102FB000E00FF11F849164E670E00E945230EC0152
:102FC0000F5F1F4FC016D10611F097FFF0CF0E9480
:102FD000D43081E0CD2B09F080E0CDB7DEB7E8E05A
:102FE0000C94CF3280913204811569F080912F04C6
:102FF000811549F062E070E086EC90E00E94C51710
:10300000811110922F040895809132048115F9F0F6
:103010000E944613DC01CB01805A9541AF4FBF4F50
:1030200080932B0490932C04A0932D04B0932E0432
:1030300080912F0481110BC062E070E084EC90E07D
:103040000E94C517811519F081E080932F0408951F
:10305000CF93DF93682F81E06A3019F06D3031F43F
:1030600080E00E94A818DF91CF9108958091FA0125
:103070009091FB0126E0FC01A3E9B1E001900D92E3
:103080002A95E1F7603E08F458C026E0FC01119251
:103090002A95E9F7C091FA01D091FB0146E050E092
:1030A000BE0183E991E00E9472339E0127523240B3
:1030B000892B41F1C90145E0969587954A95E1F73D
:1030C00041E050E0BA0102C0660F771F8A95E2F72F
:1030D000CB016091290470912A04862B972BB901AA
:1030E0006B5F7F4FE5E076956795EA95E1F702C063
:1030F000440F551F6A95E2F7842B952B90932A0471
:10310000809329042A5F3F4F4091FC01642F70E0B7
:10311000C9010E949532481B463010F4240F311D1E
:10312000211572E0370710F020E030E0295D3D4FB7
:103130003093FB012093FA0196CFF6E06F9FB00128
:10314000112468537F4F46E050E00E946933A2CFBC
:10315000CF93382FE091FA01F091FB01E752F24052
:103160002091FC01622F70E0CF010E949532281B54
:10317000822F311561F066E00E94E032C82FC15005
:1031800010F4CF91089580E20E942818F8CF9F0193
:10319000280F311D2115324018F080E0E0E0F0E00A
:1031A0008E0F9F2F911D895D9D4F9093FB01809302
:1031B000FA01E7CF0F931F93CF93DF93EC01FC014C
:1031C00001900020E9F78F0101501109C017D107C4
:1031D00028F0DF91CF911F910F91089589910E945E
:1031E0002818F4CFCF93DF93EC01FE018491811175
:1031F00003C0DF91CF9108950E9428182196F5CF42
:103200001F921FB61F9211248F939F93AF93BF936A
:103210008091D501811113C08091C6019091C701A1
:10322000A091C801B091C9014196A11DB11D809323
:10323000C6019093C701A093C801B093C901BF9183
:10324000AF919F918F911F901FBE1F9018952FB720
:10325000F8948091C6019091C701A091C801B091E6
:10326000C9012FBF08950E9427192091E7043091CA
:10327000E804232B211521F0809335049093360424
:103280002091E9043091EA04232B211521F0809349
:10329000330490933404E0915504F0915604309730
:1032A00049F082E08093E5040480F581E02D85EE0D
:1032B00094E009950895611509F44BC0E3E3E80F24
:1032C000E33150F4F0E0E258F94C0C9441330E94A1
:1032D000971281958093E8040E94331908950E9403
:1032E0009712F8CF0E94971281958093E704F4CF4C
:1032F0000E949712FACF0E94B7128093E904ECCF94
:103300000E94B7128195F9CF0E94B71281958093E0
:10331000EA04E2CF0E94B712FACF815D990B21E057
:1033200030E001C0220F8A95EAF78091E604822BF3
:103330008093E604D1CF8091E40481608093E4041B
:10334000CBCF8091E4048260F9CF8091E404846063
:10335000F5CF4091E7048D3C59F48091E80487FF54
:103360000DC01092E804411559F41092E30408C00E
:103370008E3C81F48091E80418169CF3411581F08D
:103380008091E9049091EA04892B8111A5CF1092D4
:10339000E204A2CF8F3C41F447FFF0CF1092E70444
:1033A0008091E8048115E0CF803D19F41416B4F340
:1033B000E5CF9091E904893D29F41916FCF61092A5
:1033C000E904DCCF8A3D19F497FFD8CFF8CF90916C
:1033D000EA048B3D29F497FFD1CF1092EA04CECFB7
:1033E0008C3D19F41916CCF3C9CF9FE2980F983091
:1033F00090F4815D990B21E030E0B90102C0660FC5
:10340000771F8A95E2F7CB0180959091E604892396
:103410008093E604B3CF8D3D31F48091E4048E7F38
:103420008093E404ABCF8E3D21F48091E4048D7F42
:10343000F7CF8F3D09F0A2CF8091E4048B7FF0CFCE
:10344000CF93C82F811509F44FC08CEF8C0F813AB0
:1034500008F063C080912901811511F18091260542
:1034600087FF1EC0EC2FE695E695E695F0E0E8595B
:10347000FE4F828190E04C2F477021E030E002C087
:10348000220F331F4A95E2F782239323892BA9F059
:103490006C2F88E691E00E941A130E94791609C0E9
:1034A000EAE6F1E08191C81799F381E0E037F80787
:1034B000C9F7809129018115C9F08091260587FF00
:1034C00015C0EC2FE695E695E695F0E0E859FE4F3D
:1034D000C77081E090E001C0880FCA95EAF7C28109
:1034E000C82BC2830E947916CF910895AAE6B1E055
:1034F000EFEF80E09D91C917A9F3EF3F19F4911107
:1035000001C0E82F8F5F8630A9F7EF3F59F30E2EE9
:10351000000CFF0BE859FE4FE4CF80E28C0F88309F
:1035200068F4C77081E090E001C0880FCA95EAF79F
:10353000C0912205C82BC0932205D4CF83E38C0F02
:10354000833190F661E08C2F0E945B19CDCF8115FD
:1035500009F19CEF980F913A40F4682F88E691E0CA
:103560000E941A130E947916089590E2980F9830DD
:1035700050F4877091E001C0990F8A95EAF7892F7E
:103580000E94BC0FEFCF93E3980F933118F460E0E3
:103590000E945B1908951092220580912901EAE6A4
:1035A000F1E08115E9F08091260587FF19C08EE1D1
:1035B000DF011D928A95E9F7109228050E9479167D
:1035C00086E0E5EEF4E0DF011D928A95E9F71092BE
:1035D000E3041092E2041092E4040E943319089567
:1035E00086E0E6CF0E94CB1A2FEF84E39CE02150C7
:1035F00080409040E1F700C0000088E19AE00FB6FB
:10360000F894A895809360000FBE90936000FFCF60
:10361000A0E0B0E0EEE0FBE10C94B3328C01FC01E1
:103620008481811509F408C161E0C8010E940C126F
:10363000EC01F8018581811509F452C09E013A958B
:10364000CE0199272115FFE43F0738F0CE01C115BF
:1036500041E0D40710F080E090E0AC014450510903
:103660004432510518F08B970E9780F4E0911D05B8
:10367000F0E0EE0FFF1FE551FB4F808191818F3FFE
:103680004FE7940719F001969183808380E280933D
:103690002A01D0932105C0932005CE0190528115B7
:1036A000904208F074C0F8018681803130F0FE014C
:1036B000FF27ED33F10508F489C0CB352CE7D2079D
:1036C00008F06BC1C1303CE7D30709F48BC1C330AC
:1036D0004CE7D40709F480C1C115DC4709F46FC178
:1036E000F80187819085009709F48DC10E94D5105B
:1036F000D82EC92FF801C580F680F2948FE0F82209
:103700008091250587708115F1F0EC2CC114E1F052
:10371000892F807F803451F080E28D0D883098F0C1
:10372000F11004C0892F807E803269F080912705D6
:1037300082FF09C082E00E94A40F80912505877056
:10374000EE24E3948111E12C8C2F82958F708830C8
:1037500009F448C208F08DC1843008F06BC1DC2F39
:10376000DF70823008F496C1C07FC03211F0D2956C
:10377000D07FD11409F4C4C121E0D21609F40CC2DF
:10378000C11409F418C2F11409F4D8C198C1CE01CA
:1037900090548115904160F4F8018681803108F0E1
:1037A00086CFCA35FCE7DF0709F087CF81E004C187
:1037B00021153F4108F47BCFCE01805A9245809776
:1037C00008F47BCFCD33D10568F4FE01E055F64F08
:1037D000E491E0932A01F801818180931F058081A3
:1037E00080931E05CE0190578397D8F684E090E031
:1037F0000E9432369093270580932605FE01E15002
:10380000F047E232F10520F4EF56F94C0C944133C5
:103810008091260581608093260560912605709130
:10382000270584E090E00E9466360E94CB1A8091C2
:10383000250587708111DAC0CDB7DEB7E8E00C94BA
:10384000CF3280912705886080932705E6CF80914D
:1038500026058260E0CF809126058460DCCF8091D0
:1038600026058860D8CF809127058160EDCF8091B3
:1038700027058260E9CF809126058061CCCF8091B9
:1038800026058062C8CF809126058064C4CF0E943F
:10389000CB1A809126058068BECF809126058C606A
:1038A000BACF809127058360CFCF809126058E7F88
:1038B000B2CF80912705877FC7CF809126058D7F66
:1038C000AACF809126058B7FA6CF80912605877F82
:1038D000A2CF809127058E7FB7CF809127058D7F5E
:1038E000B3CF809126058F7E96CF809126058F7D60
:1038F00092CF809126058F7B8ECF0E94CB1A80912C
:1039000026058F7788CF80912605837F84CF80918D
:1039100027058C7F99CF8091260582FB992790F906
:1039200021E0922790FB82F990FB83F974CF80917C
:103930002705982F909590FB80F990FB81F984CF13
:1039400090912605892F8F7B96FF806464CF0E941B
:10395000CB1A90912605892F97FB87F980585BCF6A
:1039600061E08EE090E00E94483657CF60E0F9CFEA
:1039700090912605892F8F7E94FF80614CCF909186
:103980002605892F8E7F90FF816045CF9091270576
:10399000892F877F93FF886057CFCB359CE7D90766
:1039A00019F1CC35DC4709F09BCE8091270582FBCD
:1039B000882780F991E089270E94621691CE0E94A3
:1039C000CB1AFFEF24E33CE0F15020403040E1F718
:1039D00000C000000E946D136FEF7FEF80E090E069
:1039E0000E9466360E94F21A80E0E6CFF8018581D7
:1039F000811509F421CF8091270582FF1DCF82E038
:103A00000E94A40F19CF8581E080F180811569F0B3
:103A1000C7010E94D811C82F682FC7010E94310F1B
:103A2000B7018C2F0E94C40F61CEC7010E94670F9F
:103A3000C82FF6CF853009F4D0C0E114A9F08091E9
:103A4000250580FD11C0F80115828695869586951D
:103A50000E940F0FC8010E94081B809125058695C2
:103A6000869586950E941F0F60E0C8010E940C1287
:103A7000E3CE893009F442C18A5F8F708230E8F664
:103A8000F2EFDF124CC18C2F8F71C11045C10E9423
:103A90000F0FDDC0C03110F0D295D07FC114B9F046
:103AA000D11569F080E28D0D883010F0D11009C079
:103AB000809122058D2B809322050E9479168D2DF1
:103AC0002FC0809128058D2B80932805F6CF8D2D52
:103AD0000E94A71AD11509F4B0CF80E28D0D88306D
:103AE00010F0D11004C08D2F0E94BC0F06C0D095DD
:103AF000809128058D23809328050E9479169DCFFB
:103B00008091270582FD16C0C11469F0D11539F0E6
:103B1000809122058D2B809322050E94791680E0EA
:103B20000E94201A8ACF80E00E94A71AD11509F4BA
:103B300084CFD9CFC114A1F0F11004C08D2F0E9401
:103B4000D0167BCF31E0F31278CF809123059D2FE3
:103B50009823D91709F471CF8D2B809323056DCF4E
:103B6000F1106BCF8D2F0E94DA16909123058D2FC7
:103B70008923811529F08D2F809589238093230532
:103B8000809124059D2F9823911509F456CFD09547
:103B9000D823D093240551CFC11429F046E0F41660
:103BA00008F04BCFCBCF85E0F81608F046CF8D2F2D
:103BB0000E94DA1642CFF114D1F399E3D91209C069
:103BC000EFEFF7EE23E0E150F0402040E1F700C0D6
:103BD00000008D2D0E94A71A30CF6C2D8D2D0E94D4
:103BE0005B192BCF8C2F8370811142C0C1102FC065
:103BF0004D2D429546954770440F440F2D2D2F7043
:103C000030E0042E02C0220F331F0A94E2F780E056
:103C100090E0D4FE09C08FE090E002C0880F991FA9
:103C20004A95E2F780959095C695C695C370C230C7
:103C3000B1F0C33089F04091A0055091A105C13089
:103C400049F0822B932B842395230E94050F0E9419
:103C5000AE15F3CE242B352B822B932BF6CF822B54
:103C6000932B2091A0053091A10582279327EDCFBA
:103C7000C11491F1C0FFEBCF4D2D42954695477091
:103C8000440F440F2D2D2F7030E0042E02C0220F60
:103C9000331F0A94E2F780E090E0D4FE09C08FE081
:103CA00090E002C0880F991F4A95E2F780959095A1
:103CB000C695C695C370C230C1F0C33099F040912B
:103CC000A2055091A305C13059F0822B932B842378
:103CD00095230E940A0FBBCF823008F4B8CFCCCF17
:103CE000242B352B822B932BF4CF822B932B2091DB
:103CF000A2053091A30582279327EBCFCF70C11483
:103D000039F08C2F0E940F0F8D2D0E94D0169FCF5F
:103D10008D2D0E94DA168C2F0E941F0F98CF33EF43
:103D2000D31680F440EFD416E1F081EFD816A1F05D
:103D3000C11409F45FC0F11409F459C08D2D0E941B
:103D4000201A85CF93EFD91631F1E4EFDE12F0CFD0
:103D50008091270582FD2DC08C2F8F71C114E1F257
:103D600096CEC114A9F0F5E0FF1608F070CFCF7120
:103D700081E090E09C0102C0220F331FCA95E2F758
:103D8000E9018091A2059091A30582279D27A1CFEB
:103D900036E0F316EACF80E090E0C11409F499CF41
:103DA000CF7181E090E002C0880F991FCA95E2F7B9
:103DB00090CFC11489F0CF718C2F0E940F0F80918A
:103DC000270582FF07C08C2F880F880F880F83601C
:103DD000809325058C2F5BCE81E00E94A40F42E0EA
:103DE000F41608F434CF82E00E94A40F30CF8C2F59
:103DF0008F714DCEF11481F089E3D81209C09FEF85
:103E0000E7EEF3E09150E040F040E1F700C0000041
:103E10008D2D0E94A71A1BCF8C2F8F717DCF809183
:103E2000C704803178F48091C604811559F0E0917F
:103E30007804209177043091C2044091C10459E084
:103E40002E1301C008956E2F70E05E9FF0011124C3
:103E5000DF01A758BB4F14968C911497811561F11F
:103E600011968C911197831327C08C91841324C0D1
:103E700015968C91159781111FC012968D919C916A
:103E8000A091C304B091C4048A1B9B0B8430914061
:103E900098F48091C7048F7080618093C704E158C3
:103EA000FB4F80818F708061808381EC94E00E9461
:103EB000081B0E949A0F0895FB013196E770C0CF4E
:103EC000AFE0B0E0E6E6FFE10C94AF328C0186E0B3
:103ED000F801DE011A9601900D928A95E1F7D8015A
:103EE0009C911596DC9015971296AD90BC90139707
:103EF0001496FC90149781EC882E84E0982EC09044
:103F0000C504C11020C0F114D9F0D11409F482C144
:103F1000C8010E943F12811509F47CC189E0F801B3
:103F2000D40101900D928A95E1F7B1E0FB1206C031
:103F30008091C1049091C2040E9430120E940F1F10
:103F4000FF24F3943DC0E090C6042091C304309157
:103F5000C404F501E21BF30B9F01E11409F421C134
:103F60002430314008F0F5C0F11451F33091C2040F
:103F700011962C9111978091C704803108F09DC053
:103F8000FD2C231322C03091C10439131EC060914F
:103F9000C8047091C90417964D915C916417750718
:103FA000A1F4D11084C08F7080618093C70481EC2C
:103FB00094E00E94081B8091C704F8018683F12CCD
:103FC0008F2D2F96ECE00C94CB32D11070C0E09185
:103FD000780480917704AE2F39E0A81317C039E038
:103FE0008E1337C08A859B850E943012292F229517
:103FF0002F70903408F441C02A5F2F70223008F4EB
:1040000050C0C8010E94081BFE2CDACF4A2F50E096
:104010003A9FD0011124A758BB4F11966C9111976C
:10402000261307C06C91961304C015966C9161110C
:1040300004C0DA011196A770D0CF81EC94E00E9401
:10404000081B89E0E1ECF4E0DF011D928A95E9F7B5
:10405000B6CF4E2F50E03E9FF0011124E758FB4FA2
:104060006181261306C06081961303C065816111CA
:10407000A6CFFA013196E770B3CF9F70223038F0A7
:10408000911551F0F8019681903130F499CF911546
:1040900019F0811509F494CF805E883008F490CF30
:1040A000B0CF803F08F48CCF815F8330F7CF809111
:1040B000C70481608093C70482CF23131FC020915F
:1040C000C10429131BC04091C8045091C90417961C
:1040D0002D913C9118974217530781F4D1100EC0CF
:1040E00016968C93C8010E94081B89E0F801A1EC88
:1040F000B4E001900D928A95E1F722CFC8010E94A9
:104100003F12811509F486C0D11409F483C080914F
:10411000C7048032A8F02091C1043091C2043A83D0
:104120002983BC82AB82CD821E828F838091C8049A
:104130009091C90499878887CE0101960E94081B37
:1041400089E0F801A1ECB4E001900D928A95E1F7C5
:10415000F5CE8091C704803108F46FCFF11409F4D3
:10416000EFCE3091C204F80121813213C7CF2091E4
:10417000C1042913C3CF4091C8045091C9042781B9
:1041800030854217530709F0B9CFD110B7CF8683D6
:10419000C8010E94081B89E0D4011D928A95E9F7A5
:1041A000CFCEE430F140D0F5F11409F4C9CED114EA
:1041B00089F12091C204F8018181281321C08091E6
:1041C000C10489131DC02091C8043091C90487819E
:1041D000908528173907A1F48091C70480FD85CF09
:1041E000803108F482CF8683982F907F903F09F426
:1041F00079CF982F907F905F8F70892B868372CFB5
:10420000C8010E943F1281119BCF8091C704816039
:104210008093C704C8010E94081B92CE89E0D40194
:1042200014CFA2E1B0E0E7E1F1E20C94B7320A87E3
:104230001B872C873D874E875F87688B798B8A8B9E
:10424000CE010A960E94601F81112AC089E0FE01FA
:104250003A96DE01119601900D928A95E1F7209130
:104260007704409178048E858115D1F030E0C90142
:1042700001968770992748171906E9F099E0929FEF
:10428000D001939FB00D1124A758BB4FFE0131966A
:1042900001900D929A95E1F7809377040E949A0F0E
:1042A00019E08091780490917704891312C0629686
:1042B000E4E00C94D3320E94CB1A1092770410924F
:1042C000780489E0E1ECF4E0DF011D928A95E9F7DA
:1042D000E7CF189FC001112487589B4F0E94601F91
:1042E000811529F38091780490E0019687709927D1
:1042F00080937804D6CFEF92FF920F931F93CF93C2
:10430000DF9380919D05E091CA01CDE0811131C01C
:10431000CDB7DEB7E6E00C94D132D1E0DE0FD0931A
:10432000CA01EE2EF12CCE9FF0011124EB5CFA4F66
:1043300084818115E9F087819085892B21F481851D
:104340009285019659F40081118122813381448143
:1043500055816681778180850E941121CE9DF00173
:10436000CF9DF00D1124EB5CFA4F148210922805BA
:10437000ED2F80919D05E81780F210929D05109217
:10438000CA01C6CFA0E0B0E0E8ECF1E20C94A9329B
:10439000C091340597E0F92E01E010E02DE0222EC7
:1043A000EE24E394809133058C1309C00E947B2195
:1043B0000E94DC12CDB7DEB7E2E10C94C532D0E04A
:1043C000FE01EE0FFF1FE75DFA4F80819181F89E9D
:1043D000B001F99E700D1124655D7E4FFB012481B3
:1043E00021115DC030909D05A5E3B5E040E050E0AF
:1043F000612C431508F051C01B96AD90BC901C97E2
:10440000FB018080918044244A9455245A94712C55
:10441000272D30E0F901EE0FFF1FE80DF91DC590C3
:10442000D490AC14BD0409F09201C114D10419F068
:1044300073942901EDCF2F3F3207B9F1F80102C083
:10444000EE0FFF1F2A95E2F76E2A9801072C02C093
:10445000220F331F0A94E2F7215031096216130626
:1044600009F5249EF001259EF00D1124EB5CFA4F16
:10447000F89ED001F99EB00D1124A55DBE4F129695
:104480002D913C9113973087278324E02483108259
:104490001182928781871596EC920E94EE122196E6
:1044A000C37080CF14961C9214974F5F5F4F1D9678
:1044B000A0CF10929F0510929E0510924701809107
:1044C0003305809334050E94DC120E947B210895FD
:1044D000AAE2B0E0EEE6F2E20C94B8328DE991E0A7
:1044E000FC0101962091F100208321E0853A92079A
:1044F000B9F780919E01893009F456C0C8F4823022
:1045000009F4B2C0833009F481C0813071F1809127
:10451000E80083FFE7C080919D0190919E019A3051
:1045200008F0E0C0E92FF0E0ED54F94C0C94413371
:104530008A3009F488C08B3051F780919D01813217
:1045400031F78091A1019091A201892B01F780910F
:10455000E800877F8093E8000E94DB1380919F0131
:10456000809329010E94CB1AD2CF80919D01813A7C
:1045700071F68091E800877F8093E8008091A10127
:104580009091A201892B61F060E080E090E070E002
:104590000E9482138091E8008B778093E800B7CF68
:1045A00060E285EA91E0F3CF80919D01813209F0CC
:1045B000AECF8091A1019091A201029708F0A7CF00
:1045C0008091E800877F8093E8008091E80082FF77
:1045D00018C09091F3008091F200029731F480911D
:1045E000F100813011F0863021F48091F100809348
:1045F000C5018091E8008B778093E8000E94DB136F
:1046000086CF80914D048111E0CF81CF80919D01B3
:10461000813A09F07CCF8091A1019091A201892B70
:1046200009F075CF8091E800877F8093E800809142
:10463000E80080FFFCCF809129018093F1008091F8
:10464000E8008E77D9CF80919D01813209F05FCF4C
:104650008091E800877F8093E8000E94DB138091BF
:10466000A0018093990153CF80919D01813A09F077
:104670004ECF8091E800877F8093E8008091E8002A
:1046800080FFFCCF80919901D8CF803889F08238A3
:1046900049F58091A1018F70873020F58093E90062
:1046A0008091EB0085FB882780F91092E90007C014
:1046B0009091D6019195927080919A01892B909159
:1046C000E800977F9093E8008093F1001092F1004A
:1046D0008091E8008E7723C0811116C080919F01E0
:1046E000813011F18091E80083FF0AC08091E800D9
:1046F000877F8093E8008091EB0080628093EB00DD
:10470000AA96E3E00C94D432823061F780919F0145
:10471000811589F01092E9008091E800877F8093ED
:10472000E8000E94DB13DECF81E0933009F080E0E7
:104730008093D601EFCF8091A1018F702FEF280FCA
:10474000263080F68093E9002091EB0020FFE2CF35
:10475000933031F48091EB0080628093EB00DACFEC
:104760009091EB0090619093EB0021E030E0A90183
:1047700002C0440F551F8A95E2F74093EA00109259
:10478000EA008091EB008860E8CF8111ABCF1091F7
:104790009F011F778091E3008078812B8093E30055
:1047A0008091E800877F8093E8000E94DB1380916E
:1047B000E80080FFFCCF8091E30080688093E300F5
:1047C00083E0111101C082E080934D048BCF8058AB
:1047D000823008F087CF40919F015091A0014C3D5D
:1047E00083E0580799F583E08A838AE289834FB78B
:1047F000F894DE01139620E03EE051E2E32FF0E072
:1048000050935700849120FF03C082958F703F5FC3
:104810008F708A30C8F0895C90E08D939D932F5FF4
:10482000243161F74FBF8091E800877F8093E800D3
:104830006AE270E0CE0101960E9482138091E80046
:104840008B778093E8004ECF805DE6CF2091A10169
:104850003091A201852F99278330910509F160F4E9
:104860008130910509F472C0029709F03BCF8BE3C8
:1048700090E0E0EDF6E029C08132910509F45AC0DC
:10488000829709F02FCF2115310509F469C0213035
:10489000310509F027CF84E890E0E8E0F6E015C0A4
:1048A000CA0199274130B1F18230910509F43AC02B
:1048B000892B09F017CFEDE3F7E0E4918E2F90E01C
:1048C000EDE3F7E0009709F40DCF2091E800277F92
:1048D0002093E8002091A3013091A401821793074F
:1048E00008F49C0140E02115310509F03EC041115A
:1048F0003CC08091E80082FDA1CF80914D048115DC
:1049000009F49CCF853009F499CF8091E80083FFAA
:10491000F0CF94CFEBE2F7E0E4918E2F90E0EBE262
:10492000F7E0D0CFEDE1F7E0E4918E2F90E0EDE1FC
:10493000F7E0C8CF2115310571F02130310509F0BC
:10494000D1CE89E090E0EBEFF6E0BFCF82E190E0DE
:10495000EBE0F7E0BACF89E090E0E2EEF6E0B5CF29
:1049600084E490E0ECE8F6E0B0CF80914D0481154E
:1049700009F464CF853009F461CF8091E80083FDAC
:104980005DCF8091E80082FDB4CF8091E80080FF88
:10499000AACF9091F3008091F2002115310519F012
:1049A0008830910550F041E0089709F040E080918F
:1049B000E8008E778093E80096CF44914093F10011
:1049C0003196215031090196E8CF803809F08ACE1E
:1049D0008091E800877F8093E80080919B0180931D
:1049E000F10076CE81117ECE10919F01123008F039
:1049F00079CE8091E800877F8093E80010939B0137
:104A00000E94DB13111581F084E080934D0442E095
:104A100061EC81E00E94E61442E261EC82E00E94D7
:104A2000E61480914D045ECE8091E30087FDECCFCB
:104A300081E0EBCF9C014FB7F8948091C601909133
:104A4000C701A091C801B091C9014FBF821B930B50
:104A50000895AEE1B0E0EFE2F5E20C94A9324B8BA1
:104A60005C8B6D8B7E8B8F8B792E988F9111109232
:104A70002805188A198A1A8A86E0FE017396DE01D3
:104A80001A9601900D928A95E1F78E85811579F03D
:104A900061E0CE010A960E940C125C0180352CE781
:104AA000920789F4711411F181E0809347010A851E
:104AB0001B852C853D854E855F85688979898A8926
:104AC0000E941121CBC081353CE7930729F4711472
:104AD00069F00E945922EBCF82359C4739F471145A
:104AE00029F0809147018111F4CFDECFEBE2EE2E69
:104AF000E1E0FE2E612C812C912C44244394512C16
:104B0000D7018D919C916FEF3FEF20E0C22ED12C09
:104B1000F601EE0FFF1FE80FF91F45915491A416FF
:104B2000B50611F0C62ED32E452B21F02F5F6C2D2C
:104B30003D2DECCF10E0BFEFCB16DB0609F44CC0E7
:104B4000F701448110914701812F411180E0182F16
:104B50001170D70115963C90159716968C91169763
:104B6000711409F4FDC0111509F4FAC0311016C012
:104B700041E050E00C2C01C0440F0A94EAF7842B6A
:104B800016968C938091310590913205C29730F43E
:104B900082E390E09093320580933105F20102C0E8
:104BA000EE0FFF1F2A95E2F79F0121503109D7012F
:104BB00016968C918217130679F480919E05909138
:104BC0009F05009709F44EC00E941A25C39708F468
:104BD00049C081E0F7018483612ABFEF8B1A9B0AE9
:104BE000E7E0EE0EF11CF4E08F16910409F088CF97
:104BF000711409F416C1611409F413C10E94271934
:104C000090939F0580939E0580919D05883030F597
:104C100091E0980F90939D0599E0FE013A96DE0190
:104C2000119601900D929A95E1F72DE0829FC001B7
:104C300011248B5C9A4F29E0FE013196DC01019032
:104C40000D922A95E1F72FEF3FEFDC011A963C9386
:104C50002E9319971C96BC92AE921B976E96E2E12A
:104C60000C94C5322091340580913305922FE0E0F9
:104C7000F0E007E0EE8EDF2C281314C0909334058B
:104C8000EE15FF0509F4A8CF90E0FC01EE0FFF1F21
:104C9000E75DFA4F91828082019683709927809315
:104CA00033059ACF222E312CF101EE0FFF1FE75D65
:104CB000FA4F40815181049FD001059FB00D11240E
:104CC000A55DBE4F4D915C9111975D8F4C8F198EF4
:104CD00030E0C12CEC2DF0E0EE0FFF1F6C8D7D8DD0
:104CE000E60FF71F6591749161157105E1F0F70109
:104CF0000190F081E02DFB8FEA8F30E005C0641752
:104D0000750709F4198F3F5FE32FF0E0EE0FFF1FE7
:104D10004A8D5B8DE40FF51F459154914115510566
:104D200071F7C394D7CF498D4115B9F0EE8DFD2DA4
:104D30003C1508F0FD0151E05483EE15FF0509F420
:104D40009DCF291305C0EA17FB0711F49F5F9370ED
:104D500091012F5F3F4F23708FCFE0E0F0E0F8CF5D
:104D600090E0311023C0B20102C0660F771F2A9570
:104D7000E2F79B01215031092817390731F4411519
:104D800009F44DC0C4010E94EE12F20102C0EE0F00
:104D9000FF1FCA94E2F76F01C094D70116968C9159
:104DA00016978C2116968C93132D16CFAC010C2CD4
:104DB00002C0559547950A94E2F79C0121503109AC
:104DC00082239323892B39F540FF25C0D701129602
:104DD0008D919C91892BD9F087E0FE013196DF01FE
:104DE0001D928A95E9F70E9427199C018B839C8369
:104DF00084E08D83F70192818381792F9887898759
:104E000009811A8144E05E816F810E941121D701DE
:104E100015961C92BACFB42FB1703B2EB6CF312E5F
:104E2000B4CF9091340580913305981729F00E94F2
:104E3000C221611013CF3BCE0E947B2110929F05AF
:104E400010929E050E94DC12F4CFA6E0B0E0EBE2E7
:104E5000F7E20C94B7320E9427198C018091530419
:104E6000909154048017910779F019821A820E9458
:104E70002719BC0149815A8180E090E00E942925D0
:104E800010935404009353042696E4E00C94D33218
:104E9000ACE0B0E0EEE4F7E20C94AC32FE01319607
:104EA00088E0DF011D928A95E9F781E5E82E81E02F
:104EB000F82E8F0195E5C92E91E0D92E3F01AA2445
:104EC000A394B12C3BE5832E31E0932EF701819121
:104ED0007F018F3F09F441C0F894E82FE295EF700D
:104EE000F0E021A18F70A50102C0440F551F8A95E3
:104EF000E2F7CA01922F982B91A392A18095892362
:104F000082A3789400C0E5E5F1E031E0512C2191D5
:104F10002F3F89F0A22FA295AF70A05EB0E08C91D8
:104F200090E02F7002C0959587952A95E2F78170E1
:104F3000811509F485C080E0582A330F8E169F062C
:104F400031F7F701319780818F3F11F00E94701285
:104F500050EA5A95F1F7D8015C920F5F1F4FCE14BB
:104F6000DF0409F0B3CF48E050E0B3018BEC91E0EF
:104F70000E947233892B09F065C00091D4018091A1
:104F800091018115F1F080918F01909190010E9423
:104F90001A250597B0F010E009521E4F44E050E08A
:104FA0006BEC71E0C8010E947233892B41F084E000
:104FB000EBECF1E0D80101900D928A95E1F71092A7
:104FC00091010E947115E091D401811509F483C00B
:104FD0007E01B9E0EB0EF11C84E0D7011D928A95A9
:104FE000E9F70E2F10E009521E4F809192018A308E
:104FF000E8F54BE257E1B701C8010E942816811578
:1050000009F457C041EE56E1B701C8010E942816C5
:10501000811509F44EC0109292018091D30190E065
:1050200044E050E0B70189529E4F0E94723321E064
:1050300020938E01892B79F52C96EFE00C94C832E1
:10504000832F7ACF88E0F301ABECB1E001900D92B1
:105050008A95E1F70091D40181E0809391010E944B
:1050600027199093900180938F018DCF80918C01AF
:1050700090918D010E941A25843F914008F0B9CF8C
:1050800080918E018115C1F284E0F70111928A9519
:10509000E9F710928E01E091D301F0E0E952FE4F62
:1050A00089859A85AB85BC8580839183A283B383F0
:1050B000C3CF809192018F3F39F40E9427199093BA
:1050C0008D0180938C01DCCF8F5F809392018A30B9
:1050D00008F4A3CFF2CFF0E0E952FE4F8081918136
:1050E000A281B38180933D0490933E04A0933F043A
:1050F000B09340048DE394E00E94491480933C04F3
:10510000C0904104D0904204E0904304F0904404E5
:105110008091880190918901A0918A01B0918B01C1
:10512000C816D906EA06FB0609F486CFC0928801A4
:10513000D0928901E0928A01F0928B010E94711550
:1051400081117ACF0E944613C61AD70AE80AF90AD3
:10515000C0924F04D0925004E0925104F092520455
:105160006BCFCDB7DEB72D970FB6F894DEBF0FBE6D
:10517000CDBF85B7806885BF85B7806885BF84B798
:10518000877F84BF0FB6F894A895809160008861EE
:1051900080936000109260000FBE80E890E00FB630
:1051A000F89480936100909361000FBE8EE692E1C7
:1051B00090936701809366010E942A140E9416153D
:1051C0008091E20084608093E200789480914D04A5
:1051D000811599F08091E9001091EC001795112745
:1051E00017958F70182B1092E9008091E80083FDCD
:1051F0000E9468221F701093E90082E084BD93E052
:1052000095BD9AEF97BD80936E0010924F04109257
:10521000500410925104109252040E947115809310
:1052200000010E94711581110E94323180910001AC
:105230008091000191E08927880F880F8093D40125
:1052400094E0981B9093D30184E90E94701286E643
:105250000E94701287E90E94701286EC0E94701200
:1052600005E511E0D8018D918D018F3F11F00E946D
:105270007012B1E00B351B07A9F788E0E7EDF1E00C
:10528000DF01282F1D922A95E9F7EBECF1E0DF0111
:105290001D928A95E9F780E090E00E943236863EC2
:1052A0009E4F09F464C066EE7EEF80E090E00E94BD
:1052B000663660E082E090E00E94483660E083E07D
:1052C00090E00E9448361092A1051092A00560E07F
:1052D00074E184E090E00E94663660E086E090E051
:1052E0000E9448366FEF87E090E00E94483640E029
:1052F00050E0BA0188E090E00E945A3660E084E213
:1053000090E00E94483660E087E190E00E944836D5
:1053100060E08CE090E00E94483660E08DE090E034
:105320000E94483619821A821B821C821D821E82AC
:105330001F82188648E050E068E170E0CE010196D7
:105340000E94383640E050E0BA0180E290E00E94CE
:105350005A3640E050E0BA018FE090E00E945A36A1
:1053600040E050E0BA0183E190E00E945A3682E0CA
:1053700090E00E942A368093DF0184E090E00E9452
:10538000323690932705809326050E944827EFEF39
:10539000F6E721E0E150F0402040E1F700C00000D6
:1053A0000E9448270E94711511E0E82FE127EE0FB7
:1053B000EE0FF0E0E952FE4F808181FF08C06FEFF1
:1053C0007FEF80E090E00E9466360E946D1383E0DC
:1053D00090E00E942A3690E00E94050F0E9471150D
:1053E0008127880F8093270480E88093FC010E9426
:1053F000DD2F6BE070E088E597E00E94C51781150E
:1054000009F43FC08091270465E070E081FDA7C0EA
:1054100083E597E00E94C517811599F16DE070E072
:1054200081E497E00E94C517811559F10E94461347
:10543000DC01CB01805A9541AF4FBF4F80932B04C5
:1054400090932C04A0932D04B0932E04E7E2F2E095
:1054500080E092E0DF019C011D9221503040E1F795
:10546000F093FB01E093FA018FEF9FEF90932A04F2
:105470008093290481E08093320480932F0410925A
:1054800028040E947115811102C00E94353181E00B
:1054900091E09093560480935504CE0101968D8738
:1054A000292E80914D04853049F480914D0485303A
:1054B00009F458C00E94CB1A0E94AE150E944827DA
:1054C00000EE11E0A7EDEA2EA1E0FA2ED701F801D7
:1054D00091918D9128EE31E02E173F0709F496C087
:1054E0009817B1F30E947115882ED12CD701CD9059
:1054F0007D01F80191908F019C1441F19C24B12C05
:10550000AA24A394892D8A218115C1F08114B1F0B8
:10551000B982DA820E9427199C838B83F1E0FD8394
:1055200091E08C2D8A21811101C090E09E834981F8
:105530005A816B817C818D810E942925B394AA0CAC
:1055400026E0B212DFCFF8013197C082D39438E061
:10555000D312CCCF0E949415332433945CC08EE4D4
:1055600097E058CF80914D04843031F10E94F217BA
:105570001092D50188E190E0A0E40FB6F894A895C8
:10558000809360000FBEA093600083B7817F84602A
:1055900083BF83B7816083BF7894889583B78E7FFC
:1055A00083BF0FB6F894A8958091600088618093BE
:1055B0006000109260000FBE8091D601811509F441
:1055C00074CF0E944827E7EDF1E08FED91E0219143
:1055D000211104C08E179F07D1F767CF80E189BDE5
:1055E00082E189BD09B400FEFDCF8091D8008F7D96
:1055F0008093D8008091E00082608093E0008091E9
:10560000E00081FDFCCF0E94CB1A4FCF98136ACFE8
:105610000E942527312C0E947115811509F4E0C0E4
:1056200080914701811501F180919E0590919F0520
:105630000097D1F00E941A25209131053091320552
:105640002817390788F4909134058091330598170D
:1056500009F441C20E94C221109232051092310514
:1056600010929F0510929E05C090EB04D090EC0420
:105670000D2C000CEE08FF0810910901A12EB12C91
:10568000EBEEF4E081E090E03296A816B9060CF05B
:105690002BC26091EE017091EF018091F001909129
:1056A000F1010E9452132B013C019601A701F7FE64
:1056B00004C020E030E040E050E0A0E6BAEE0E94F6
:1056C000473369877A878B879C8788EC8A9D90010E
:1056D0008B9D300D1124032E000C440B550B240D13
:1056E000351D461D571DA5E0B0E00E9447339B01C4
:1056F000AC0169857A858B859C850E9400334901C0
:105700005A01213F31054105510528F0F0EF8F2E58
:10571000912CA12CB12C99EC49165104610471040F
:105720000CF180911D0590E0019669E170E00E9406
:10573000EC3280931D05880F991FFC01E551FB4F4A
:1057400011821082183108F017E11F5F10930901D0
:105750000E9446136093EE017093EF018093F00175
:105760009093F101A2E0CA16D104E104F1041CF403
:10577000812C912C54016091EA017091EB01809190
:10578000EC019091ED010E9452136B017C01B5E692
:10579000CB16D104E104F10484F00E944613609317
:1057A000EA017093EB018093EC019093ED018091FD
:1057B000A4058093E9018092E8011091E901A0918C
:1057C000E801A11BBB0BA70196010E94523324E6FE
:1057D00030E040E050E00E942233120F1093A40505
:1057E00080913204811509F490C080913004909129
:1057F00031040E941A25C29708F467C00E94271935
:10580000909331048093300487E292E09093FB01FF
:105810008093FA018091A405811509F471C10E9459
:1058200004186091F6017091F7018091F801909150
:10583000F9010E945213693C71058105910560F0E0
:105840000E9446136093F6017093F7018093F8016C
:105850009093F9010E94B3140E9446136093F201E1
:105860007093F3018093F4019093F50187E292E045
:105870009093FB018093FA018091A4051F928F936E
:1058800088E491E09F938F938DEF91E09F938F93A6
:105890000E9488338DEF91E00E94DA180E94AE15C5
:1058A0002091FC0130E0295D3D4F3093FB012093B6
:1058B000FA010F900F900F900F900F900F9081FFB3
:1058C0004EC18BE697E00E94F218809129049091D6
:1058D0002A04892B09F046C180912F048115A9F073
:1058E0000E94461300912B0410912C0420912D044A
:1058F00030912E04601B710B820B930B6F3F7F4F17
:105900008F4F9F4710F40E94F21731100E94041825
:1059100086E0E5EEF4E0AD85B22D01900D928A951A
:10592000E1F7D090E604F090E7041091E804E090ED
:10593000E9040091EA041092E7041092E80410923E
:10594000E9041092EA04812F8F29811509F445C0DA
:1059500080913504909136040E941A259C01809113
:10596000E304811509F4DFC125313105B0F18F3F22
:1059700019F08F5F8093E304F11459F00E9497129D
:1059800091E01F140CF09FEF899F802D11248093CC
:10599000E704111559F00E94971291E011160CF0CE
:1059A0009FEF899F802D11248093E8048091E70464
:1059B000811599F0C090E804C11479F00E94891211
:1059C000811101C081E08093E7048C2D0E9489122F
:1059D000811509F49FC18093E804802F8E298115D9
:1059E00009F445C080913304909134040E941A2533
:1059F0009C018091E204811509F490C121353105A3
:105A0000B0F18F3F19F08F5F8093E204E11459F0F9
:105A10000E94B71291E01E140CF09FEF899F802D19
:105A200011248093E904011559F00E94B71291E006
:105A300010160CF09FEF899F802D11248093EA04AB
:105A40008091E904811599F0E090EA04E11479F07D
:105A50000E948912811101C081E08093E9048E2D9A
:105A60000E948912811509F457C18093EA0480913C
:105A7000E604D81219C08091E704811511F08F1146
:105A800013C02091E804211511F012130DC090915C
:105A9000EA04911511F0091307C03091E90431119E
:105AA00003C0822B892B81110E94331986E0ED857A
:105AB000F22DA5EEB4E001900D928A95E1F70E94D7
:105AC000AE1590913704891709F4EBCC8093370415
:105AD0000E944613E6CC0E947B2110929F051092F3
